{
  "contractName": "TimelockController",
  "abi": [
    {
      "inputs": [],
      "stateMutability": "nonpayable",
      "type": "constructor"
    },
    {
      "anonymous": false,
      "inputs": [
        {
          "indexed": true,
          "internalType": "bytes32",
          "name": "id",
          "type": "bytes32"
        },
        {
          "indexed": true,
          "internalType": "uint256",
          "name": "index",
          "type": "uint256"
        },
        {
          "indexed": false,
          "internalType": "address",
          "name": "target",
          "type": "address"
        },
        {
          "indexed": false,
          "internalType": "uint256",
          "name": "value",
          "type": "uint256"
        },
        {
          "indexed": false,
          "internalType": "bytes",
          "name": "data",
          "type": "bytes"
        }
      ],
      "name": "CallExecuted",
      "type": "event"
    },
    {
      "anonymous": false,
      "inputs": [
        {
          "indexed": true,
          "internalType": "bytes32",
          "name": "id",
          "type": "bytes32"
        },
        {
          "indexed": true,
          "internalType": "uint256",
          "name": "index",
          "type": "uint256"
        },
        {
          "indexed": false,
          "internalType": "address",
          "name": "target",
          "type": "address"
        },
        {
          "indexed": false,
          "internalType": "uint256",
          "name": "value",
          "type": "uint256"
        },
        {
          "indexed": false,
          "internalType": "bytes",
          "name": "data",
          "type": "bytes"
        },
        {
          "indexed": false,
          "internalType": "bytes32",
          "name": "predecessor",
          "type": "bytes32"
        },
        {
          "indexed": false,
          "internalType": "uint256",
          "name": "delay",
          "type": "uint256"
        }
      ],
      "name": "CallScheduled",
      "type": "event"
    },
    {
      "anonymous": false,
      "inputs": [
        {
          "indexed": true,
          "internalType": "bytes32",
          "name": "id",
          "type": "bytes32"
        }
      ],
      "name": "Cancelled",
      "type": "event"
    },
    {
      "anonymous": false,
      "inputs": [
        {
          "indexed": false,
          "internalType": "uint256",
          "name": "oldDuration",
          "type": "uint256"
        },
        {
          "indexed": false,
          "internalType": "uint256",
          "name": "newDuration",
          "type": "uint256"
        }
      ],
      "name": "MinDelayChange",
      "type": "event"
    },
    {
      "anonymous": false,
      "inputs": [
        {
          "indexed": false,
          "internalType": "uint256",
          "name": "oldDuration",
          "type": "uint256"
        },
        {
          "indexed": false,
          "internalType": "uint256",
          "name": "newDuration",
          "type": "uint256"
        }
      ],
      "name": "MinDelayReducedChange",
      "type": "event"
    },
    {
      "anonymous": false,
      "inputs": [
        {
          "indexed": true,
          "internalType": "bytes32",
          "name": "role",
          "type": "bytes32"
        },
        {
          "indexed": true,
          "internalType": "bytes32",
          "name": "previousAdminRole",
          "type": "bytes32"
        },
        {
          "indexed": true,
          "internalType": "bytes32",
          "name": "newAdminRole",
          "type": "bytes32"
        }
      ],
      "name": "RoleAdminChanged",
      "type": "event"
    },
    {
      "anonymous": false,
      "inputs": [
        {
          "indexed": true,
          "internalType": "bytes32",
          "name": "role",
          "type": "bytes32"
        },
        {
          "indexed": true,
          "internalType": "address",
          "name": "account",
          "type": "address"
        },
        {
          "indexed": true,
          "internalType": "address",
          "name": "sender",
          "type": "address"
        }
      ],
      "name": "RoleGranted",
      "type": "event"
    },
    {
      "anonymous": false,
      "inputs": [
        {
          "indexed": true,
          "internalType": "bytes32",
          "name": "role",
          "type": "bytes32"
        },
        {
          "indexed": true,
          "internalType": "address",
          "name": "account",
          "type": "address"
        },
        {
          "indexed": true,
          "internalType": "address",
          "name": "sender",
          "type": "address"
        }
      ],
      "name": "RoleRevoked",
      "type": "event"
    },
    {
      "anonymous": false,
      "inputs": [
        {
          "indexed": true,
          "internalType": "bytes32",
          "name": "id",
          "type": "bytes32"
        },
        {
          "indexed": true,
          "internalType": "uint256",
          "name": "index",
          "type": "uint256"
        },
        {
          "indexed": false,
          "internalType": "uint256",
          "name": "_pid",
          "type": "uint256"
        },
        {
          "indexed": false,
          "internalType": "uint256",
          "name": "_allocPoint",
          "type": "uint256"
        },
        {
          "indexed": false,
          "internalType": "bool",
          "name": "_withUpdate",
          "type": "bool"
        },
        {
          "indexed": false,
          "internalType": "bytes32",
          "name": "predecessor",
          "type": "bytes32"
        },
        {
          "indexed": false,
          "internalType": "uint256",
          "name": "delay",
          "type": "uint256"
        }
      ],
      "name": "SetScheduled",
      "type": "event"
    },
    {
      "anonymous": false,
      "inputs": [
        {
          "indexed": true,
          "internalType": "bytes32",
          "name": "id",
          "type": "bytes32"
        },
        {
          "indexed": true,
          "internalType": "uint256",
          "name": "index",
          "type": "uint256"
        },
        {
          "indexed": false,
          "internalType": "address",
          "name": "target",
          "type": "address"
        },
        {
          "indexed": false,
          "internalType": "uint256",
          "name": "value",
          "type": "uint256"
        },
        {
          "indexed": false,
          "internalType": "bytes",
          "name": "data",
          "type": "bytes"
        },
        {
          "indexed": false,
          "internalType": "bytes32",
          "name": "predecessor",
          "type": "bytes32"
        },
        {
          "indexed": false,
          "internalType": "uint256",
          "name": "delay",
          "type": "uint256"
        }
      ],
      "name": "SetScheduled",
      "type": "event"
    },
    {
      "inputs": [],
      "name": "DEFAULT_ADMIN_ROLE",
      "outputs": [
        {
          "internalType": "bytes32",
          "name": "",
          "type": "bytes32"
        }
      ],
      "stateMutability": "view",
      "type": "function"
    },
    {
      "inputs": [],
      "name": "EXECUTOR_ROLE",
      "outputs": [
        {
          "internalType": "bytes32",
          "name": "",
          "type": "bytes32"
        }
      ],
      "stateMutability": "view",
      "type": "function"
    },
    {
      "inputs": [],
      "name": "PROPOSER_ROLE",
      "outputs": [
        {
          "internalType": "bytes32",
          "name": "",
          "type": "bytes32"
        }
      ],
      "stateMutability": "view",
      "type": "function"
    },
    {
      "inputs": [],
      "name": "TIMELOCK_ADMIN_ROLE",
      "outputs": [
        {
          "internalType": "bytes32",
          "name": "",
          "type": "bytes32"
        }
      ],
      "stateMutability": "view",
      "type": "function"
    },
    {
      "inputs": [],
      "name": "devWalletAddress",
      "outputs": [
        {
          "internalType": "address payable",
          "name": "",
          "type": "address"
        }
      ],
      "stateMutability": "view",
      "type": "function"
    },
    {
      "inputs": [
        {
          "internalType": "bytes32",
          "name": "role",
          "type": "bytes32"
        }
      ],
      "name": "getRoleAdmin",
      "outputs": [
        {
          "internalType": "bytes32",
          "name": "",
          "type": "bytes32"
        }
      ],
      "stateMutability": "view",
      "type": "function"
    },
    {
      "inputs": [
        {
          "internalType": "bytes32",
          "name": "role",
          "type": "bytes32"
        },
        {
          "internalType": "uint256",
          "name": "index",
          "type": "uint256"
        }
      ],
      "name": "getRoleMember",
      "outputs": [
        {
          "internalType": "address",
          "name": "",
          "type": "address"
        }
      ],
      "stateMutability": "view",
      "type": "function"
    },
    {
      "inputs": [
        {
          "internalType": "bytes32",
          "name": "role",
          "type": "bytes32"
        }
      ],
      "name": "getRoleMemberCount",
      "outputs": [
        {
          "internalType": "uint256",
          "name": "",
          "type": "uint256"
        }
      ],
      "stateMutability": "view",
      "type": "function"
    },
    {
      "inputs": [
        {
          "internalType": "bytes32",
          "name": "role",
          "type": "bytes32"
        },
        {
          "internalType": "address",
          "name": "account",
          "type": "address"
        }
      ],
      "name": "grantRole",
      "outputs": [],
      "stateMutability": "nonpayable",
      "type": "function"
    },
    {
      "inputs": [
        {
          "internalType": "bytes32",
          "name": "role",
          "type": "bytes32"
        },
        {
          "internalType": "address",
          "name": "account",
          "type": "address"
        }
      ],
      "name": "hasRole",
      "outputs": [
        {
          "internalType": "bool",
          "name": "",
          "type": "bool"
        }
      ],
      "stateMutability": "view",
      "type": "function"
    },
    {
      "inputs": [],
      "name": "minDelay",
      "outputs": [
        {
          "internalType": "uint256",
          "name": "",
          "type": "uint256"
        }
      ],
      "stateMutability": "view",
      "type": "function"
    },
    {
      "inputs": [],
      "name": "minDelayReduced",
      "outputs": [
        {
          "internalType": "uint256",
          "name": "",
          "type": "uint256"
        }
      ],
      "stateMutability": "view",
      "type": "function"
    },
    {
      "inputs": [
        {
          "internalType": "bytes32",
          "name": "role",
          "type": "bytes32"
        },
        {
          "internalType": "address",
          "name": "account",
          "type": "address"
        }
      ],
      "name": "renounceRole",
      "outputs": [],
      "stateMutability": "nonpayable",
      "type": "function"
    },
    {
      "inputs": [
        {
          "internalType": "bytes32",
          "name": "role",
          "type": "bytes32"
        },
        {
          "internalType": "address",
          "name": "account",
          "type": "address"
        }
      ],
      "name": "revokeRole",
      "outputs": [],
      "stateMutability": "nonpayable",
      "type": "function"
    },
    {
      "stateMutability": "payable",
      "type": "receive"
    },
    {
      "inputs": [
        {
          "internalType": "bytes32",
          "name": "id",
          "type": "bytes32"
        }
      ],
      "name": "isOperationPending",
      "outputs": [
        {
          "internalType": "bool",
          "name": "pending",
          "type": "bool"
        }
      ],
      "stateMutability": "view",
      "type": "function"
    },
    {
      "inputs": [
        {
          "internalType": "bytes32",
          "name": "id",
          "type": "bytes32"
        }
      ],
      "name": "isOperationReady",
      "outputs": [
        {
          "internalType": "bool",
          "name": "ready",
          "type": "bool"
        }
      ],
      "stateMutability": "view",
      "type": "function"
    },
    {
      "inputs": [
        {
          "internalType": "bytes32",
          "name": "id",
          "type": "bytes32"
        }
      ],
      "name": "isOperationDone",
      "outputs": [
        {
          "internalType": "bool",
          "name": "done",
          "type": "bool"
        }
      ],
      "stateMutability": "view",
      "type": "function"
    },
    {
      "inputs": [
        {
          "internalType": "bytes32",
          "name": "id",
          "type": "bytes32"
        }
      ],
      "name": "getTimestamp",
      "outputs": [
        {
          "internalType": "uint256",
          "name": "timestamp",
          "type": "uint256"
        }
      ],
      "stateMutability": "view",
      "type": "function"
    },
    {
      "inputs": [],
      "name": "getMinDelay",
      "outputs": [
        {
          "internalType": "uint256",
          "name": "duration",
          "type": "uint256"
        }
      ],
      "stateMutability": "view",
      "type": "function"
    },
    {
      "inputs": [
        {
          "internalType": "address",
          "name": "target",
          "type": "address"
        },
        {
          "internalType": "uint256",
          "name": "value",
          "type": "uint256"
        },
        {
          "internalType": "bytes",
          "name": "data",
          "type": "bytes"
        },
        {
          "internalType": "bytes32",
          "name": "predecessor",
          "type": "bytes32"
        },
        {
          "internalType": "bytes32",
          "name": "salt",
          "type": "bytes32"
        }
      ],
      "name": "hashOperation",
      "outputs": [
        {
          "internalType": "bytes32",
          "name": "hash",
          "type": "bytes32"
        }
      ],
      "stateMutability": "pure",
      "type": "function"
    },
    {
      "inputs": [
        {
          "internalType": "address[]",
          "name": "targets",
          "type": "address[]"
        },
        {
          "internalType": "uint256[]",
          "name": "values",
          "type": "uint256[]"
        },
        {
          "internalType": "bytes[]",
          "name": "datas",
          "type": "bytes[]"
        },
        {
          "internalType": "bytes32",
          "name": "predecessor",
          "type": "bytes32"
        },
        {
          "internalType": "bytes32",
          "name": "salt",
          "type": "bytes32"
        }
      ],
      "name": "hashOperationBatch",
      "outputs": [
        {
          "internalType": "bytes32",
          "name": "hash",
          "type": "bytes32"
        }
      ],
      "stateMutability": "pure",
      "type": "function"
    },
    {
      "inputs": [
        {
          "internalType": "address",
          "name": "target",
          "type": "address"
        },
        {
          "internalType": "uint256",
          "name": "value",
          "type": "uint256"
        },
        {
          "internalType": "bytes",
          "name": "data",
          "type": "bytes"
        },
        {
          "internalType": "bytes32",
          "name": "predecessor",
          "type": "bytes32"
        },
        {
          "internalType": "bytes32",
          "name": "salt",
          "type": "bytes32"
        },
        {
          "internalType": "uint256",
          "name": "delay",
          "type": "uint256"
        }
      ],
      "name": "schedule",
      "outputs": [],
      "stateMutability": "nonpayable",
      "type": "function"
    },
    {
      "inputs": [
        {
          "internalType": "address[]",
          "name": "targets",
          "type": "address[]"
        },
        {
          "internalType": "uint256[]",
          "name": "values",
          "type": "uint256[]"
        },
        {
          "internalType": "bytes[]",
          "name": "datas",
          "type": "bytes[]"
        },
        {
          "internalType": "bytes32",
          "name": "predecessor",
          "type": "bytes32"
        },
        {
          "internalType": "bytes32",
          "name": "salt",
          "type": "bytes32"
        },
        {
          "internalType": "uint256",
          "name": "delay",
          "type": "uint256"
        }
      ],
      "name": "scheduleBatch",
      "outputs": [],
      "stateMutability": "nonpayable",
      "type": "function"
    },
    {
      "inputs": [
        {
          "internalType": "bytes32",
          "name": "id",
          "type": "bytes32"
        }
      ],
      "name": "cancel",
      "outputs": [],
      "stateMutability": "nonpayable",
      "type": "function"
    },
    {
      "inputs": [
        {
          "internalType": "address",
          "name": "target",
          "type": "address"
        },
        {
          "internalType": "uint256",
          "name": "value",
          "type": "uint256"
        },
        {
          "internalType": "bytes",
          "name": "data",
          "type": "bytes"
        },
        {
          "internalType": "bytes32",
          "name": "predecessor",
          "type": "bytes32"
        },
        {
          "internalType": "bytes32",
          "name": "salt",
          "type": "bytes32"
        }
      ],
      "name": "execute",
      "outputs": [],
      "stateMutability": "payable",
      "type": "function"
    },
    {
      "inputs": [
        {
          "internalType": "address[]",
          "name": "targets",
          "type": "address[]"
        },
        {
          "internalType": "uint256[]",
          "name": "values",
          "type": "uint256[]"
        },
        {
          "internalType": "bytes[]",
          "name": "datas",
          "type": "bytes[]"
        },
        {
          "internalType": "bytes32",
          "name": "predecessor",
          "type": "bytes32"
        },
        {
          "internalType": "bytes32",
          "name": "salt",
          "type": "bytes32"
        }
      ],
      "name": "executeBatch",
      "outputs": [],
      "stateMutability": "payable",
      "type": "function"
    },
    {
      "inputs": [
        {
          "internalType": "uint256",
          "name": "newDelay",
          "type": "uint256"
        }
      ],
      "name": "updateMinDelay",
      "outputs": [],
      "stateMutability": "nonpayable",
      "type": "function"
    },
    {
      "inputs": [
        {
          "internalType": "uint256",
          "name": "newDelay",
          "type": "uint256"
        }
      ],
      "name": "updateMinDelayReduced",
      "outputs": [],
      "stateMutability": "nonpayable",
      "type": "function"
    },
    {
      "inputs": [
        {
          "internalType": "address payable",
          "name": "_devWalletAddress",
          "type": "address"
        }
      ],
      "name": "setDevWalletAddress",
      "outputs": [],
      "stateMutability": "nonpayable",
      "type": "function"
    },
    {
      "inputs": [
        {
          "internalType": "address",
          "name": "_pumpyfarmAddress",
          "type": "address"
        },
        {
          "internalType": "uint256",
          "name": "_pid",
          "type": "uint256"
        },
        {
          "internalType": "uint256",
          "name": "_allocPoint",
          "type": "uint256"
        },
        {
          "internalType": "bool",
          "name": "_withUpdate",
          "type": "bool"
        },
        {
          "internalType": "bytes32",
          "name": "predecessor",
          "type": "bytes32"
        },
        {
          "internalType": "bytes32",
          "name": "salt",
          "type": "bytes32"
        }
      ],
      "name": "scheduleSet",
      "outputs": [],
      "stateMutability": "nonpayable",
      "type": "function"
    },
    {
      "inputs": [
        {
          "internalType": "address",
          "name": "_pumpyfarmAddress",
          "type": "address"
        },
        {
          "internalType": "uint256",
          "name": "_pid",
          "type": "uint256"
        },
        {
          "internalType": "uint256",
          "name": "_allocPoint",
          "type": "uint256"
        },
        {
          "internalType": "bool",
          "name": "_withUpdate",
          "type": "bool"
        },
        {
          "internalType": "bytes32",
          "name": "predecessor",
          "type": "bytes32"
        },
        {
          "internalType": "bytes32",
          "name": "salt",
          "type": "bytes32"
        }
      ],
      "name": "executeSet",
      "outputs": [],
      "stateMutability": "payable",
      "type": "function"
    },
    {
      "inputs": [],
      "name": "withdrawBNB",
      "outputs": [],
      "stateMutability": "payable",
      "type": "function"
    },
    {
      "inputs": [
        {
          "internalType": "address",
          "name": "_tokenAddress",
          "type": "address"
        }
      ],
      "name": "withdrawBEP20",
      "outputs": [],
      "stateMutability": "payable",
      "type": "function"
    },
    {
      "inputs": [
        {
          "internalType": "address",
          "name": "_pumpyfarmAddress",
          "type": "address"
        },
        {
          "internalType": "address",
          "name": "_want",
          "type": "address"
        },
        {
          "internalType": "bool",
          "name": "_withUpdate",
          "type": "bool"
        },
        {
          "internalType": "address",
          "name": "_strat",
          "type": "address"
        }
      ],
      "name": "add",
      "outputs": [],
      "stateMutability": "nonpayable",
      "type": "function"
    },
    {
      "inputs": [
        {
          "internalType": "address",
          "name": "_stratAddress",
          "type": "address"
        }
      ],
      "name": "earn",
      "outputs": [],
      "stateMutability": "nonpayable",
      "type": "function"
    },
    {
      "inputs": [
        {
          "internalType": "address",
          "name": "_stratAddress",
          "type": "address"
        }
      ],
      "name": "farm",
      "outputs": [],
      "stateMutability": "nonpayable",
      "type": "function"
    },
    {
      "inputs": [
        {
          "internalType": "address",
          "name": "_stratAddress",
          "type": "address"
        }
      ],
      "name": "pause",
      "outputs": [],
      "stateMutability": "nonpayable",
      "type": "function"
    },
    {
      "inputs": [
        {
          "internalType": "address",
          "name": "_stratAddress",
          "type": "address"
        }
      ],
      "name": "unpause",
      "outputs": [],
      "stateMutability": "nonpayable",
      "type": "function"
    },
    {
      "inputs": [
        {
          "internalType": "address",
          "name": "_stratAddress",
          "type": "address"
        },
        {
          "internalType": "uint256",
          "name": "_borrowRate",
          "type": "uint256"
        },
        {
          "internalType": "uint256",
          "name": "_borrowDepth",
          "type": "uint256"
        }
      ],
      "name": "rebalance",
      "outputs": [],
      "stateMutability": "nonpayable",
      "type": "function"
    },
    {
      "inputs": [
        {
          "internalType": "address",
          "name": "_stratAddress",
          "type": "address"
        }
      ],
      "name": "deleverageOnce",
      "outputs": [],
      "stateMutability": "nonpayable",
      "type": "function"
    },
    {
      "inputs": [
        {
          "internalType": "address",
          "name": "_stratAddress",
          "type": "address"
        }
      ],
      "name": "wrapBNB",
      "outputs": [],
      "stateMutability": "nonpayable",
      "type": "function"
    },
    {
      "inputs": [
        {
          "internalType": "address",
          "name": "_stratAddress",
          "type": "address"
        }
      ],
      "name": "noTimeLockFunc1",
      "outputs": [],
      "stateMutability": "nonpayable",
      "type": "function"
    },
    {
      "inputs": [
        {
          "internalType": "address",
          "name": "_stratAddress",
          "type": "address"
        }
      ],
      "name": "noTimeLockFunc2",
      "outputs": [],
      "stateMutability": "nonpayable",
      "type": "function"
    },
    {
      "inputs": [
        {
          "internalType": "address",
          "name": "_stratAddress",
          "type": "address"
        }
      ],
      "name": "noTimeLockFunc3",
      "outputs": [],
      "stateMutability": "nonpayable",
      "type": "function"
    }
  ],
  "bytecode": "0x6080604052603c600255601e60035573eaf2b6f5d9482c80729a00bdea2abac8f099f0a3600460006101000a81548173ffffffffffffffffffffffffffffffffffffffff021916908373ffffffffffffffffffffffffffffffffffffffff1602179055503480156200007057600080fd5b50620000a37f5f58e3a2316349923ce3780f8d587db2d72378aed66a8261c916544fa6846ca580620002a660201b60201c565b620000f57fb09aa5aeb3702cfd50b6b62bc4532604938f21248a27a1d5ca736082b6819cc17f5f58e3a2316349923ce3780f8d587db2d72378aed66a8261c916544fa6846ca5620002a660201b60201c565b620001477fd8aa0f3194971a2a116679f7c2090f6939c8d4e01a2a8d7e41d55e5351469e637f5f58e3a2316349923ce3780f8d587db2d72378aed66a8261c916544fa6846ca5620002a660201b60201c565b620001887f5f58e3a2316349923ce3780f8d587db2d72378aed66a8261c916544fa6846ca56200017c6200030860201b60201c565b6200031060201b60201c565b620001ba7f5f58e3a2316349923ce3780f8d587db2d72378aed66a8261c916544fa6846ca5306200031060201b60201c565b6200020e7fb09aa5aeb3702cfd50b6b62bc4532604938f21248a27a1d5ca736082b6819cc1600460009054906101000a900473ffffffffffffffffffffffffffffffffffffffff166200031060201b60201c565b620002627fd8aa0f3194971a2a116679f7c2090f6939c8d4e01a2a8d7e41d55e5351469e63600460009054906101000a900473ffffffffffffffffffffffffffffffffffffffff166200031060201b60201c565b7f11c24f4ead16507c69ac467fbd5e4eed5fb5c699626d2cc6d66421df253886d5600060025460405162000298929190620004c0565b60405180910390a16200050b565b8060008084815260200190815260200160002060020154837fbd79b86ffe0ab8e8776151514217cd7cacd52c909f66475c3af44e129f0b00ff60405160405180910390a480600080848152602001908152602001600020600201819055505050565b600033905090565b6200032282826200032660201b60201c565b5050565b6200035481600080858152602001908152602001600020600001620003c960201b620026dd1790919060201c565b15620003c5576200036a6200030860201b60201c565b73ffffffffffffffffffffffffffffffffffffffff168173ffffffffffffffffffffffffffffffffffffffff16837f2f8788117e7eff1d82e926ec794901d17c78024a50270940304540a733656f0d60405160405180910390a45b5050565b6000620003f9836000018373ffffffffffffffffffffffffffffffffffffffff1660001b6200040160201b60201c565b905092915050565b60006200041583836200047b60201b60201c565b6200047057826000018290806001815401808255809150506001900390600052602060002001600090919091909150558260000180549050836001016000848152602001908152602001600020819055506001905062000475565b600090505b92915050565b600080836001016000848152602001908152602001600020541415905092915050565b620004a981620004f7565b82525050565b620004ba81620004ed565b82525050565b6000604082019050620004d760008301856200049e565b620004e66020830184620004af565b9392505050565b6000819050919050565b60006200050482620004ed565b9050919050565b614bcd806200051b6000396000f3fe60806040526004361061026b5760003560e01c80638f61f4f511610144578063c532433e116100b6578063d547741f1161007a578063d547741f1461091d578063de29756614610946578063e38335e51461096f578063ea84c7e01461098b578063f27a0c92146109b4578063fdb5fefc146109df57610272565b8063c532433e14610826578063c63c4e9b1461084f578063ca15c8731461087a578063ce12f2b1146108b7578063d45c4435146108e057610272565b8063a3c8873811610108578063a3c887381461071c578063a8833fc814610745578063a90909171461076e578063b1c5f42714610797578063be6c0297146107d4578063c4d252f5146107fd57610272565b80638f61f4f5146106235780639010d07c1461064e57806391d148541461068b57806393cdf9b5146106c8578063a217fddf146106f157610272565b80632f2ff15d116101dd578063584b153e116101a1578063584b153e1461050357806376a67a51146105405780638065657f14610569578063886ce505146105a65780638a99d586146105d15780638f2a0bb0146105fa57610272565b80632f2ff15d1461044357806336568abe1461046c57806341cb4c05146104955780634af93e82146104be57806357b001f9146104da57610272565b8063120a06121161022f578063120a06121461033d578063134008d31461036657806313bc9f20146103825780631d111d13146103bf578063248a9ca3146103c95780632ab0f5291461040657610272565b806301d5062a14610277578063047e4086146102a057806307bd0265146102bc5780630d3cf6fc146102e75780630e0388131461031257610272565b3661027257005b600080fd5b34801561028357600080fd5b5061029e60048036038101906102999190613423565b610a08565b005b6102ba60048036038101906102b591906132dc565b610af6565b005b3480156102c857600080fd5b506102d1610d14565b6040516102de91906144fb565b60405180910390f35b3480156102f357600080fd5b506102fc610d38565b60405161030991906144fb565b60405180910390f35b34801561031e57600080fd5b50610327610d5c565b6040516103349190614283565b60405180910390f35b34801561034957600080fd5b50610364600480360381019061035f9190613305565b610d82565b005b610380600480360381019061037b9190613391565b610ec4565b005b34801561038e57600080fd5b506103a960048036038101906103a49190613776565b610f84565b6040516103b691906144e0565b60405180910390f35b6103c7610fc2565b005b3480156103d557600080fd5b506103f060048036038101906103eb9190613776565b6110bd565b6040516103fd91906144fb565b60405180910390f35b34801561041257600080fd5b5061042d60048036038101906104289190613776565b6110dc565b60405161043a91906144e0565b60405180910390f35b34801561044f57600080fd5b5061046a6004803603810190610465919061379f565b6110fb565b005b34801561047857600080fd5b50610493600480360381019061048e919061379f565b61116e565b005b3480156104a157600080fd5b506104bc60048036038101906104b79190613519565b6111f1565b005b6104d860048036038101906104d39190613519565b611370565b005b3480156104e657600080fd5b5061050160048036038101906104fc91906132dc565b6114b3565b005b34801561050f57600080fd5b5061052a60048036038101906105259190613776565b61159a565b60405161053791906144e0565b60405180910390f35b34801561054c57600080fd5b50610567600480360381019061056291906132dc565b6115b9565b005b34801561057557600080fd5b50610590600480360381019061058b9190613391565b6116a0565b60405161059d91906144fb565b60405180910390f35b3480156105b257600080fd5b506105bb6116df565b6040516105c891906147dd565b60405180910390f35b3480156105dd57600080fd5b506105f860048036038101906105f39190613817565b6116e5565b005b34801561060657600080fd5b50610621600480360381019061061c919061366e565b611798565b005b34801561062f57600080fd5b50610638611981565b60405161064591906144fb565b60405180910390f35b34801561065a57600080fd5b50610675600480360381019061067091906137db565b6119a5565b604051610682919061424d565b60405180910390f35b34801561069757600080fd5b506106b260048036038101906106ad919061379f565b6119d6565b6040516106bf91906144e0565b60405180910390f35b3480156106d457600080fd5b506106ef60048036038101906106ea91906132dc565b611a07565b005b3480156106fd57600080fd5b50610706611aee565b60405161071391906144fb565b60405180910390f35b34801561072857600080fd5b50610743600480360381019061073e91906132dc565b611af5565b005b34801561075157600080fd5b5061076c600480360381019061076791906134ca565b611bdc565b005b34801561077a57600080fd5b50610795600480360381019061079091906132dc565b611cd2565b005b3480156107a357600080fd5b506107be60048036038101906107b991906135a2565b611db9565b6040516107cb91906144fb565b60405180910390f35b3480156107e057600080fd5b506107fb60048036038101906107f69190613817565b611dfe565b005b34801561080957600080fd5b50610824600480360381019061081f9190613776565b611eb1565b005b34801561083257600080fd5b5061084d6004803603810190610848919061332e565b611fc4565b005b34801561085b57600080fd5b506108646120c0565b60405161087191906147dd565b60405180910390f35b34801561088657600080fd5b506108a1600480360381019061089c9190613776565b6120c6565b6040516108ae91906147dd565b60405180910390f35b3480156108c357600080fd5b506108de60048036038101906108d991906132dc565b6120ec565b005b3480156108ec57600080fd5b5061090760048036038101906109029190613776565b6121d3565b60405161091491906147dd565b60405180910390f35b34801561092957600080fd5b50610944600480360381019061093f919061379f565b6121f0565b005b34801561095257600080fd5b5061096d600480360381019061096891906132dc565b612263565b005b610989600480360381019061098491906135a2565b61234a565b005b34801561099757600080fd5b506109b260048036038101906109ad91906132dc565b612505565b005b3480156109c057600080fd5b506109c96125ec565b6040516109d691906147dd565b60405180910390f35b3480156109eb57600080fd5b50610a066004803603810190610a0191906132dc565b6125f6565b005b7fb09aa5aeb3702cfd50b6b62bc4532604938f21248a27a1d5ca736082b6819cc1610a3a81610a3561270d565b6119d6565b80610a4c5750610a4b8160006119d6565b5b610a8b576040517f08c379a0000000000000000000000000000000000000000000000000000000008152600401610a82906145fd565b60405180910390fd5b6000610a9b8989898989896116a0565b9050610aa78184612715565b6000817f4cf4410cc57040e44862ef0f45f3dd5a5e02db8eb8add648d4b0e236f1d07dca8b8b8b8b8b8a604051610ae3969594939291906143b5565b60405180910390a3505050505050505050565b600460009054906101000a900473ffffffffffffffffffffffffffffffffffffffff1673ffffffffffffffffffffffffffffffffffffffff163373ffffffffffffffffffffffffffffffffffffffff1614610b86576040517f08c379a0000000000000000000000000000000000000000000000000000000008152600401610b7d9061469d565b60405180910390fd5b60008173ffffffffffffffffffffffffffffffffffffffff166370a08231306040518263ffffffff1660e01b8152600401610bc19190614268565b60206040518083038186803b158015610bd957600080fd5b505afa158015610bed573d6000803e3d6000fd5b505050506040513d601f19601f82011682018060405250810190610c119190613840565b9050610c60600460009054906101000a900473ffffffffffffffffffffffffffffffffffffffff16828473ffffffffffffffffffffffffffffffffffffffff166127d59092919063ffffffff16565b8173ffffffffffffffffffffffffffffffffffffffff1663a9059cbb600460009054906101000a900473ffffffffffffffffffffffffffffffffffffffff16836040518363ffffffff1660e01b8152600401610cbd92919061429e565b602060405180830381600087803b158015610cd757600080fd5b505af1158015610ceb573d6000803e3d6000fd5b505050506040513d601f19601f82011682018060405250810190610d0f919061374d565b505050565b7fd8aa0f3194971a2a116679f7c2090f6939c8d4e01a2a8d7e41d55e5351469e6381565b7f5f58e3a2316349923ce3780f8d587db2d72378aed66a8261c916544fa6846ca581565b600460009054906101000a900473ffffffffffffffffffffffffffffffffffffffff1681565b3073ffffffffffffffffffffffffffffffffffffffff163373ffffffffffffffffffffffffffffffffffffffff1614610df0576040517f08c379a0000000000000000000000000000000000000000000000000000000008152600401610de79061475d565b60405180910390fd5b600460009054906101000a900473ffffffffffffffffffffffffffffffffffffffff1673ffffffffffffffffffffffffffffffffffffffff163273ffffffffffffffffffffffffffffffffffffffff1614610e80576040517f08c379a0000000000000000000000000000000000000000000000000000000008152600401610e77906147bd565b60405180910390fd5b80600460006101000a81548173ffffffffffffffffffffffffffffffffffffffff021916908373ffffffffffffffffffffffffffffffffffffffff16021790555050565b7fd8aa0f3194971a2a116679f7c2090f6939c8d4e01a2a8d7e41d55e5351469e63610ef681610ef161270d565b6119d6565b80610f085750610f078160006119d6565b5b610f47576040517f08c379a0000000000000000000000000000000000000000000000000000000008152600401610f3e906145fd565b60405180910390fd5b6000610f578888888888886116a0565b9050610f62846128fd565b610f718160008a8a8a8a612955565b610f7a81612a4d565b5050505050505050565b6000600180600084815260200190815260200160002054118015610fbb575042600160008481526020019081526020016000205411155b9050919050565b600460009054906101000a900473ffffffffffffffffffffffffffffffffffffffff1673ffffffffffffffffffffffffffffffffffffffff163373ffffffffffffffffffffffffffffffffffffffff1614611052576040517f08c379a00000000000000000000000000000000000000000000000000000000081526004016110499061469d565b60405180910390fd5b600460009054906101000a900473ffffffffffffffffffffffffffffffffffffffff1673ffffffffffffffffffffffffffffffffffffffff166108fc479081150290604051600060405180830381858888f193505050501580156110ba573d6000803e3d6000fd5b50565b6000806000838152602001908152602001600020600201549050919050565b6000600180600084815260200190815260200160002054149050919050565b6111216000808481526020019081526020016000206002015461111c61270d565b6119d6565b611160576040517f08c379a0000000000000000000000000000000000000000000000000000000008152600401611157906145bd565b60405180910390fd5b61116a8282612ab0565b5050565b61117661270d565b73ffffffffffffffffffffffffffffffffffffffff168173ffffffffffffffffffffffffffffffffffffffff16146111e3576040517f08c379a00000000000000000000000000000000000000000000000000000000081526004016111da9061477d565b60405180910390fd5b6111ed8282612b43565b5050565b7fd8aa0f3194971a2a116679f7c2090f6939c8d4e01a2a8d7e41d55e5351469e636112238161121e61270d565b6119d6565b8061123557506112348160006119d6565b5b611274576040517f08c379a000000000000000000000000000000000000000000000000000000000815260040161126b906145fd565b60405180910390fd5b600087878787878760405160200161129196959493929190614411565b60405160208183030381529060405280519060200120905060006001600083815260200190815260200160002054146112ff576040517f08c379a00000000000000000000000000000000000000000000000000000000081526004016112f6906146bd565b60405180910390fd5b61130b42600354612bd6565b60016000838152602001908152602001600020819055506000817fbeff167aab6e5067256065b2eb29930005ab5afa2b1c4d1d248e7db86afe810b8989898960035460405161135e959493929190614858565b60405180910390a35050505050505050565b7fd8aa0f3194971a2a116679f7c2090f6939c8d4e01a2a8d7e41d55e5351469e636113a28161139d61270d565b6119d6565b806113b457506113b38160006119d6565b5b6113f3576040517f08c379a00000000000000000000000000000000000000000000000000000000081526004016113ea906145fd565b60405180910390fd5b600087878787878760405160200161141096959493929190614411565b604051602081830303815290604052805190602001209050611431846128fd565b8773ffffffffffffffffffffffffffffffffffffffff166364482f798888886040518463ffffffff1660e01b815260040161146e93929190614821565b600060405180830381600087803b15801561148857600080fd5b505af115801561149c573d6000803e3d6000fd5b505050506114a981612a4d565b5050505050505050565b7fd8aa0f3194971a2a116679f7c2090f6939c8d4e01a2a8d7e41d55e5351469e636114e5816114e061270d565b6119d6565b806114f757506114f68160006119d6565b5b611536576040517f08c379a000000000000000000000000000000000000000000000000000000000815260040161152d906145fd565b60405180910390fd5b8173ffffffffffffffffffffffffffffffffffffffff16633f4ba83a6040518163ffffffff1660e01b8152600401600060405180830381600087803b15801561157e57600080fd5b505af1158015611592573d6000803e3d6000fd5b505050505050565b6000600180600084815260200190815260200160002054119050919050565b7fd8aa0f3194971a2a116679f7c2090f6939c8d4e01a2a8d7e41d55e5351469e636115eb816115e661270d565b6119d6565b806115fd57506115fc8160006119d6565b5b61163c576040517f08c379a0000000000000000000000000000000000000000000000000000000008152600401611633906145fd565b60405180910390fd5b8173ffffffffffffffffffffffffffffffffffffffff16638456cb596040518163ffffffff1660e01b8152600401600060405180830381600087803b15801561168457600080fd5b505af1158015611698573d6000803e3d6000fd5b505050505050565b60008686868686866040516020016116bd96959493929190614359565b6040516020818303038152906040528051906020012090509695505050505050565b60035481565b3073ffffffffffffffffffffffffffffffffffffffff163373ffffffffffffffffffffffffffffffffffffffff1614611753576040517f08c379a000000000000000000000000000000000000000000000000000000000815260040161174a9061475d565b60405180910390fd5b7f11c24f4ead16507c69ac467fbd5e4eed5fb5c699626d2cc6d66421df253886d5600254826040516117869291906147f8565b60405180910390a18060028190555050565b7fb09aa5aeb3702cfd50b6b62bc4532604938f21248a27a1d5ca736082b6819cc16117ca816117c561270d565b6119d6565b806117dc57506117db8160006119d6565b5b61181b576040517f08c379a0000000000000000000000000000000000000000000000000000000008152600401611812906145fd565b60405180910390fd5b878790508a8a905014611863576040517f08c379a000000000000000000000000000000000000000000000000000000000815260040161185a906145dd565b60405180910390fd5b858590508a8a9050146118ab576040517f08c379a00000000000000000000000000000000000000000000000000000000081526004016118a2906145dd565b60405180910390fd5b60006118bd8b8b8b8b8b8b8b8b611db9565b90506118c98184612715565b60005b8b8b90508110156119735780827f4cf4410cc57040e44862ef0f45f3dd5a5e02db8eb8add648d4b0e236f1d07dca8e8e8581811061190657fe5b905060200201602081019061191b91906132dc565b8d8d8681811061192757fe5b905060200201358c8c8781811061193a57fe5b905060200281019061194c91906148ab565b8c8b604051611960969594939291906143b5565b60405180910390a38060010190506118cc565b505050505050505050505050565b7fb09aa5aeb3702cfd50b6b62bc4532604938f21248a27a1d5ca736082b6819cc181565b60006119ce82600080868152602001908152602001600020600001612c2b90919063ffffffff16565b905092915050565b60006119ff82600080868152602001908152602001600020600001612c4590919063ffffffff16565b905092915050565b7fd8aa0f3194971a2a116679f7c2090f6939c8d4e01a2a8d7e41d55e5351469e63611a3981611a3461270d565b6119d6565b80611a4b5750611a4a8160006119d6565b5b611a8a576040517f08c379a0000000000000000000000000000000000000000000000000000000008152600401611a81906145fd565b60405180910390fd5b8173ffffffffffffffffffffffffffffffffffffffff16633c2b39b06040518163ffffffff1660e01b8152600401600060405180830381600087803b158015611ad257600080fd5b505af1158015611ae6573d6000803e3d6000fd5b505050505050565b6000801b81565b7fd8aa0f3194971a2a116679f7c2090f6939c8d4e01a2a8d7e41d55e5351469e63611b2781611b2261270d565b6119d6565b80611b395750611b388160006119d6565b5b611b78576040517f08c379a0000000000000000000000000000000000000000000000000000000008152600401611b6f906145fd565b60405180910390fd5b8173ffffffffffffffffffffffffffffffffffffffff1663d5b091636040518163ffffffff1660e01b8152600401600060405180830381600087803b158015611bc057600080fd5b505af1158015611bd4573d6000803e3d6000fd5b505050505050565b7fd8aa0f3194971a2a116679f7c2090f6939c8d4e01a2a8d7e41d55e5351469e63611c0e81611c0961270d565b6119d6565b80611c205750611c1f8160006119d6565b5b611c5f576040517f08c379a0000000000000000000000000000000000000000000000000000000008152600401611c56906145fd565b60405180910390fd5b8373ffffffffffffffffffffffffffffffffffffffff1663df8879b884846040518363ffffffff1660e01b8152600401611c9a9291906147f8565b600060405180830381600087803b158015611cb457600080fd5b505af1158015611cc8573d6000803e3d6000fd5b5050505050505050565b7fd8aa0f3194971a2a116679f7c2090f6939c8d4e01a2a8d7e41d55e5351469e63611d0481611cff61270d565b6119d6565b80611d165750611d158160006119d6565b5b611d55576040517f08c379a0000000000000000000000000000000000000000000000000000000008152600401611d4c906145fd565b60405180910390fd5b8173ffffffffffffffffffffffffffffffffffffffff166336e9332d6040518163ffffffff1660e01b8152600401600060405180830381600087803b158015611d9d57600080fd5b505af1158015611db1573d6000803e3d6000fd5b505050505050565b60008888888888888888604051602001611dda989796959493929190614472565b60405160208183030381529060405280519060200120905098975050505050505050565b3073ffffffffffffffffffffffffffffffffffffffff163373ffffffffffffffffffffffffffffffffffffffff1614611e6c576040517f08c379a0000000000000000000000000000000000000000000000000000000008152600401611e639061475d565b60405180910390fd5b7f596b3acad3954126f9cd5659152e0abf28f5e4c8ed617821eb7f7f4830b6bdda60035482604051611e9f9291906147f8565b60405180910390a18060038190555050565b7fb09aa5aeb3702cfd50b6b62bc4532604938f21248a27a1d5ca736082b6819cc1611ee381611ede61270d565b6119d6565b80611ef55750611ef48160006119d6565b5b611f34576040517f08c379a0000000000000000000000000000000000000000000000000000000008152600401611f2b906145fd565b60405180910390fd5b611f3d8261159a565b611f7c576040517f08c379a0000000000000000000000000000000000000000000000000000000008152600401611f739061471d565b60405180910390fd5b6001600083815260200190815260200160002060009055817fbaa1eb22f2a492ba1a5fea61b8df4d27c6c8b5f3971e63bb58fa14ff72eedb7060405160405180910390a25050565b7fd8aa0f3194971a2a116679f7c2090f6939c8d4e01a2a8d7e41d55e5351469e63611ff681611ff161270d565b6119d6565b8061200857506120078160006119d6565b5b612047576040517f08c379a000000000000000000000000000000000000000000000000000000000815260040161203e906145fd565b60405180910390fd5b8473ffffffffffffffffffffffffffffffffffffffff16635f70edcf60008686866040518563ffffffff1660e01b81526004016120879493929190614516565b600060405180830381600087803b1580156120a157600080fd5b505af11580156120b5573d6000803e3d6000fd5b505050505050505050565b60025481565b60006120e5600080848152602001908152602001600020600001612c75565b9050919050565b7fd8aa0f3194971a2a116679f7c2090f6939c8d4e01a2a8d7e41d55e5351469e6361211e8161211961270d565b6119d6565b80612130575061212f8160006119d6565b5b61216f576040517f08c379a0000000000000000000000000000000000000000000000000000000008152600401612166906145fd565b60405180910390fd5b8173ffffffffffffffffffffffffffffffffffffffff16637c3f1e8c6040518163ffffffff1660e01b8152600401600060405180830381600087803b1580156121b757600080fd5b505af11580156121cb573d6000803e3d6000fd5b505050505050565b600060016000838152602001908152602001600020549050919050565b6122166000808481526020019081526020016000206002015461221161270d565b6119d6565b612255576040517f08c379a000000000000000000000000000000000000000000000000000000000815260040161224c9061465d565b60405180910390fd5b61225f8282612b43565b5050565b7fd8aa0f3194971a2a116679f7c2090f6939c8d4e01a2a8d7e41d55e5351469e636122958161229061270d565b6119d6565b806122a757506122a68160006119d6565b5b6122e6576040517f08c379a00000000000000000000000000000000000000000000000000000000081526004016122dd906145fd565b60405180910390fd5b8173ffffffffffffffffffffffffffffffffffffffff1663a086c9966040518163ffffffff1660e01b8152600401600060405180830381600087803b15801561232e57600080fd5b505af1158015612342573d6000803e3d6000fd5b505050505050565b7fd8aa0f3194971a2a116679f7c2090f6939c8d4e01a2a8d7e41d55e5351469e6361237c8161237761270d565b6119d6565b8061238e575061238d8160006119d6565b5b6123cd576040517f08c379a00000000000000000000000000000000000000000000000000000000081526004016123c4906145fd565b60405180910390fd5b868690508989905014612415576040517f08c379a000000000000000000000000000000000000000000000000000000000815260040161240c906145dd565b60405180910390fd5b84849050898990501461245d576040517f08c379a0000000000000000000000000000000000000000000000000000000008152600401612454906145dd565b60405180910390fd5b600061246f8a8a8a8a8a8a8a8a611db9565b905061247a846128fd565b60005b8a8a90508110156124ef576124e482828d8d8581811061249957fe5b90506020020160208101906124ae91906132dc565b8c8c868181106124ba57fe5b905060200201358b8b878181106124cd57fe5b90506020028101906124df91906148ab565b612955565b80600101905061247d565b506124f981612a4d565b50505050505050505050565b7fd8aa0f3194971a2a116679f7c2090f6939c8d4e01a2a8d7e41d55e5351469e636125378161253261270d565b6119d6565b8061254957506125488160006119d6565b5b612588576040517f08c379a000000000000000000000000000000000000000000000000000000000815260040161257f906145fd565b60405180910390fd5b8173ffffffffffffffffffffffffffffffffffffffff1663c93d9cc76040518163ffffffff1660e01b8152600401600060405180830381600087803b1580156125d057600080fd5b505af11580156125e4573d6000803e3d6000fd5b505050505050565b6000600254905090565b7fd8aa0f3194971a2a116679f7c2090f6939c8d4e01a2a8d7e41d55e5351469e636126288161262361270d565b6119d6565b8061263a57506126398160006119d6565b5b612679576040517f08c379a0000000000000000000000000000000000000000000000000000000008152600401612670906145fd565b60405180910390fd5b8173ffffffffffffffffffffffffffffffffffffffff1663d389800f6040518163ffffffff1660e01b8152600401600060405180830381600087803b1580156126c157600080fd5b505af11580156126d5573d6000803e3d6000fd5b505050505050565b6000612705836000018373ffffffffffffffffffffffffffffffffffffffff1660001b612c8a565b905092915050565b600033905090565b600060016000848152602001908152602001600020541461276b576040517f08c379a0000000000000000000000000000000000000000000000000000000008152600401612762906146bd565b60405180910390fd5b6002548110156127b0576040517f08c379a00000000000000000000000000000000000000000000000000000000081526004016127a79061467d565b60405180910390fd5b6127ba4282612bd6565b60016000848152602001908152602001600020819055505050565b6000612874828573ffffffffffffffffffffffffffffffffffffffff1663dd62ed3e30876040518363ffffffff1660e01b81526004016128169291906142c7565b60206040518083038186803b15801561282e57600080fd5b505afa158015612842573d6000803e3d6000fd5b505050506040513d601f19601f820116820180604052508101906128669190613840565b612bd690919063ffffffff16565b90506128f78463095ea7b360e01b85846040516024016128959291906142f0565b604051602081830303815290604052907bffffffffffffffffffffffffffffffffffffffffffffffffffffffff19166020820180517bffffffffffffffffffffffffffffffffffffffffffffffffffffffff8381831617835250505050612cfa565b50505050565b6000801b8114806129135750612912816110dc565b5b612952576040517f08c379a00000000000000000000000000000000000000000000000000000000081526004016129499061459d565b60405180910390fd5b50565b60008473ffffffffffffffffffffffffffffffffffffffff1684848460405161297f92919061421d565b60006040518083038185875af1925050503d80600081146129bc576040519150601f19603f3d011682016040523d82523d6000602084013e6129c1565b606091505b5050905080612a05576040517f08c379a00000000000000000000000000000000000000000000000000000000081526004016129fc9061479d565b60405180910390fd5b85877fc2617efa69bab66782fa219543714338489c4e9e178271560a91b82c3f612b5887878787604051612a3c9493929190614319565b60405180910390a350505050505050565b612a5681610f84565b612a95576040517f08c379a0000000000000000000000000000000000000000000000000000000008152600401612a8c906146dd565b60405180910390fd5b60018060008381526020019081526020016000208190555050565b612ad7816000808581526020019081526020016000206000016126dd90919063ffffffff16565b15612b3f57612ae461270d565b73ffffffffffffffffffffffffffffffffffffffff168173ffffffffffffffffffffffffffffffffffffffff16837f2f8788117e7eff1d82e926ec794901d17c78024a50270940304540a733656f0d60405160405180910390a45b5050565b612b6a81600080858152602001908152602001600020600001612dc190919063ffffffff16565b15612bd257612b7761270d565b73ffffffffffffffffffffffffffffffffffffffff168173ffffffffffffffffffffffffffffffffffffffff16837ff6391f5c32d9c69d2a47ea670b442974b53935d1edc7fd64eb21e047a839171b60405160405180910390a45b5050565b600080828401905083811015612c21576040517f08c379a0000000000000000000000000000000000000000000000000000000008152600401612c189061461d565b60405180910390fd5b8091505092915050565b6000612c3a8360000183612df1565b60001c905092915050565b6000612c6d836000018373ffffffffffffffffffffffffffffffffffffffff1660001b612e5e565b905092915050565b6000612c8382600001612e81565b9050919050565b6000612c968383612e5e565b612cef578260000182908060018154018082558091505060019003906000526020600020016000909190919091505582600001805490508360010160008481526020019081526020016000208190555060019050612cf4565b600090505b92915050565b6060612d5c826040518060400160405280602081526020017f5361666545524332303a206c6f772d6c6576656c2063616c6c206661696c65648152508573ffffffffffffffffffffffffffffffffffffffff16612e929092919063ffffffff16565b9050600081511115612dbc5780806020019051810190612d7c919061374d565b612dbb576040517f08c379a0000000000000000000000000000000000000000000000000000000008152600401612db29061473d565b60405180910390fd5b5b505050565b6000612de9836000018373ffffffffffffffffffffffffffffffffffffffff1660001b612eaa565b905092915050565b600081836000018054905011612e3c576040517f08c379a0000000000000000000000000000000000000000000000000000000008152600401612e339061457d565b60405180910390fd5b826000018281548110612e4b57fe5b9060005260206000200154905092915050565b600080836001016000848152602001908152602001600020541415905092915050565b600081600001805490509050919050565b6060612ea18484600085612f92565b90509392505050565b60008083600101600084815260200190815260200160002054905060008114612f865760006001820390506000600186600001805490500390506000866000018281548110612ef557fe5b9060005260206000200154905080876000018481548110612f1257fe5b9060005260206000200181905550600183018760010160008381526020019081526020016000208190555086600001805480612f4a57fe5b60019003818190600052602060002001600090559055866001016000878152602001908152602001600020600090556001945050505050612f8c565b60009150505b92915050565b606082471015612fd7576040517f08c379a0000000000000000000000000000000000000000000000000000000008152600401612fce9061463d565b60405180910390fd5b612fe0856130a7565b61301f576040517f08c379a0000000000000000000000000000000000000000000000000000000008152600401613016906146fd565b60405180910390fd5b600060608673ffffffffffffffffffffffffffffffffffffffff1685876040516130499190614236565b60006040518083038185875af1925050503d8060008114613086576040519150601f19603f3d011682016040523d82523d6000602084013e61308b565b606091505b509150915061309b8282866130ba565b92505050949350505050565b600080823b905060008111915050919050565b606083156130ca5782905061311a565b6000835111156130dd5782518084602001fd5b816040517f08c379a0000000000000000000000000000000000000000000000000000000008152600401613111919061455b565b60405180910390fd5b9392505050565b60008135905061313081614b24565b92915050565b60008135905061314581614b3b565b92915050565b60008083601f84011261315d57600080fd5b8235905067ffffffffffffffff81111561317657600080fd5b60208301915083602082028301111561318e57600080fd5b9250929050565b60008083601f8401126131a757600080fd5b8235905067ffffffffffffffff8111156131c057600080fd5b6020830191508360208202830111156131d857600080fd5b9250929050565b60008083601f8401126131f157600080fd5b8235905067ffffffffffffffff81111561320a57600080fd5b60208301915083602082028301111561322257600080fd5b9250929050565b60008135905061323881614b52565b92915050565b60008151905061324d81614b52565b92915050565b60008135905061326281614b69565b92915050565b60008083601f84011261327a57600080fd5b8235905067ffffffffffffffff81111561329357600080fd5b6020830191508360018202830111156132ab57600080fd5b9250929050565b6000813590506132c181614b80565b92915050565b6000815190506132d681614b80565b92915050565b6000602082840312156132ee57600080fd5b60006132fc84828501613121565b91505092915050565b60006020828403121561331757600080fd5b600061332584828501613136565b91505092915050565b6000806000806080858703121561334457600080fd5b600061335287828801613121565b945050602061336387828801613121565b935050604061337487828801613229565b925050606061338587828801613121565b91505092959194509250565b60008060008060008060a087890312156133aa57600080fd5b60006133b889828a01613121565b96505060206133c989828a016132b2565b955050604087013567ffffffffffffffff8111156133e657600080fd5b6133f289828a01613268565b9450945050606061340589828a01613253565b925050608061341689828a01613253565b9150509295509295509295565b600080600080600080600060c0888a03121561343e57600080fd5b600061344c8a828b01613121565b975050602061345d8a828b016132b2565b965050604088013567ffffffffffffffff81111561347a57600080fd5b6134868a828b01613268565b955095505060606134998a828b01613253565b93505060806134aa8a828b01613253565b92505060a06134bb8a828b016132b2565b91505092959891949750929550565b6000806000606084860312156134df57600080fd5b60006134ed86828701613121565b93505060206134fe868287016132b2565b925050604061350f868287016132b2565b9150509250925092565b60008060008060008060c0878903121561353257600080fd5b600061354089828a01613121565b965050602061355189828a016132b2565b955050604061356289828a016132b2565b945050606061357389828a01613229565b935050608061358489828a01613253565b92505060a061359589828a01613253565b9150509295509295509295565b60008060008060008060008060a0898b0312156135be57600080fd5b600089013567ffffffffffffffff8111156135d857600080fd5b6135e48b828c0161314b565b9850985050602089013567ffffffffffffffff81111561360357600080fd5b61360f8b828c016131df565b9650965050604089013567ffffffffffffffff81111561362e57600080fd5b61363a8b828c01613195565b9450945050606061364d8b828c01613253565b925050608061365e8b828c01613253565b9150509295985092959890939650565b600080600080600080600080600060c08a8c03121561368c57600080fd5b60008a013567ffffffffffffffff8111156136a657600080fd5b6136b28c828d0161314b565b995099505060208a013567ffffffffffffffff8111156136d157600080fd5b6136dd8c828d016131df565b975097505060408a013567ffffffffffffffff8111156136fc57600080fd5b6137088c828d01613195565b9550955050606061371b8c828d01613253565b935050608061372c8c828d01613253565b92505060a061373d8c828d016132b2565b9150509295985092959850929598565b60006020828403121561375f57600080fd5b600061376d8482850161323e565b91505092915050565b60006020828403121561378857600080fd5b600061379684828501613253565b91505092915050565b600080604083850312156137b257600080fd5b60006137c085828601613253565b92505060206137d185828601613121565b9150509250929050565b600080604083850312156137ee57600080fd5b60006137fc85828601613253565b925050602061380d858286016132b2565b9150509250929050565b60006020828403121561382957600080fd5b6000613837848285016132b2565b91505092915050565b60006020828403121561385257600080fd5b6000613860848285016132c7565b91505092915050565b600061387583836138b5565b60208301905092915050565b600061388e848484613a1c565b90509392505050565b6138a081614a89565b82525050565b6138af81614a37565b82525050565b6138be81614a25565b82525050565b6138cd81614a25565b82525050565b60006138df8385614946565b93506138ea82614902565b8060005b858110156139235761390082846149b7565b61390a8882613869565b97506139158361492c565b9250506001810190506138ee565b5085925050509392505050565b600061393c8385614957565b93508360208402850161394e8461490c565b8060005b8781101561399457848403895261396982846149ce565b613974868284613881565b955061397f84614939565b935060208b019a505050600181019050613952565b50829750879450505050509392505050565b60006139b28385614968565b93507f07ffffffffffffffffffffffffffffffffffffffffffffffffffffffffffffff8311156139e157600080fd5b6020830292506139f2838584614ad1565b82840190509392505050565b613a0781614a49565b82525050565b613a1681614a55565b82525050565b6000613a288385614979565b9350613a35838584614ad1565b613a3e83614b13565b840190509392505050565b6000613a55838561498a565b9350613a62838584614ad1565b613a6b83614b13565b840190509392505050565b6000613a82838561499b565b9350613a8f838584614ad1565b82840190509392505050565b6000613aa682614916565b613ab0818561499b565b9350613ac0818560208601614ae0565b80840191505092915050565b613ad581614a9b565b82525050565b6000613ae682614921565b613af081856149a6565b9350613b00818560208601614ae0565b613b0981614b13565b840191505092915050565b6000613b216022836149a6565b91507f456e756d657261626c655365743a20696e646578206f7574206f6620626f756e60008301527f64730000000000000000000000000000000000000000000000000000000000006020830152604082019050919050565b6000613b876026836149a6565b91507f54696d656c6f636b436f6e74726f6c6c65723a206d697373696e67206465706560008301527f6e64656e637900000000000000000000000000000000000000000000000000006020830152604082019050919050565b6000613bed602f836149a6565b91507f416363657373436f6e74726f6c3a2073656e646572206d75737420626520616e60008301527f2061646d696e20746f206772616e7400000000000000000000000000000000006020830152604082019050919050565b6000613c536023836149a6565b91507f54696d656c6f636b436f6e74726f6c6c65723a206c656e677468206d69736d6160008301527f74636800000000000000000000000000000000000000000000000000000000006020830152604082019050919050565b6000613cb9602e836149a6565b91507f54696d656c6f636b436f6e74726f6c6c65723a2073656e64657220726571756960008301527f726573207065726d697373696f6e0000000000000000000000000000000000006020830152604082019050919050565b6000613d1f601b836149a6565b91507f536166654d6174683a206164646974696f6e206f766572666c6f7700000000006000830152602082019050919050565b6000613d5f6026836149a6565b91507f416464726573733a20696e73756666696369656e742062616c616e636520666f60008301527f722063616c6c00000000000000000000000000000000000000000000000000006020830152604082019050919050565b6000613dc56030836149a6565b91507f416363657373436f6e74726f6c3a2073656e646572206d75737420626520616e60008301527f2061646d696e20746f207265766f6b65000000000000000000000000000000006020830152604082019050919050565b6000613e2b6026836149a6565b91507f54696d656c6f636b436f6e74726f6c6c65723a20696e73756666696369656e7460008301527f2064656c617900000000000000000000000000000000000000000000000000006020830152604082019050919050565b6000613e916011836149a6565b91507f2164657657616c6c6574416464726573730000000000000000000000000000006000830152602082019050919050565b6000613ed1602f836149a6565b91507f54696d656c6f636b436f6e74726f6c6c65723a206f7065726174696f6e20616c60008301527f7265616479207363686564756c656400000000000000000000000000000000006020830152604082019050919050565b6000613f37602a836149a6565b91507f54696d656c6f636b436f6e74726f6c6c65723a206f7065726174696f6e20697360008301527f206e6f74207265616479000000000000000000000000000000000000000000006020830152604082019050919050565b6000613f9d601d836149a6565b91507f416464726573733a2063616c6c20746f206e6f6e2d636f6e74726163740000006000830152602082019050919050565b6000613fdd6031836149a6565b91507f54696d656c6f636b436f6e74726f6c6c65723a206f7065726174696f6e20636160008301527f6e6e6f742062652063616e63656c6c65640000000000000000000000000000006020830152604082019050919050565b6000614043602a836149a6565b91507f5361666545524332303a204552433230206f7065726174696f6e20646964206e60008301527f6f742073756363656564000000000000000000000000000000000000000000006020830152604082019050919050565b60006140a9602b836149a6565b91507f54696d656c6f636b436f6e74726f6c6c65723a2063616c6c6572206d7573742060008301527f62652074696d656c6f636b0000000000000000000000000000000000000000006020830152604082019050919050565b600061410f602f836149a6565b91507f416363657373436f6e74726f6c3a2063616e206f6e6c792072656e6f756e636560008301527f20726f6c657320666f722073656c6600000000000000000000000000000000006020830152604082019050919050565b60006141756033836149a6565b91507f54696d656c6f636b436f6e74726f6c6c65723a20756e6465726c79696e67207460008301527f72616e73616374696f6e207265766572746564000000000000000000000000006020830152604082019050919050565b60006141db601d836149a6565b91507f74782e6f726967696e20213d2064657657616c6c6574416464726573730000006000830152602082019050919050565b61421781614a7f565b82525050565b600061422a828486613a76565b91508190509392505050565b60006142428284613a9b565b915081905092915050565b600060208201905061426260008301846138c4565b92915050565b600060208201905061427d6000830184613897565b92915050565b600060208201905061429860008301846138a6565b92915050565b60006040820190506142b36000830185613897565b6142c0602083018461420e565b9392505050565b60006040820190506142dc60008301856138c4565b6142e960208301846138c4565b9392505050565b600060408201905061430560008301856138c4565b614312602083018461420e565b9392505050565b600060608201905061432e60008301876138c4565b61433b602083018661420e565b818103604083015261434e818486613a49565b905095945050505050565b600060a08201905061436e60008301896138c4565b61437b602083018861420e565b818103604083015261438e818688613a49565b905061439d6060830185613a0d565b6143aa6080830184613a0d565b979650505050505050565b600060a0820190506143ca60008301896138c4565b6143d7602083018861420e565b81810360408301526143ea818688613a49565b90506143f96060830185613a0d565b614406608083018461420e565b979650505050505050565b600060c08201905061442660008301896138c4565b614433602083018861420e565b614440604083018761420e565b61444d60608301866139fe565b61445a6080830185613a0d565b61446760a0830184613a0d565b979650505050505050565b600060a082019050818103600083015261448d818a8c6138d3565b905081810360208301526144a281888a6139a6565b905081810360408301526144b7818688613930565b90506144c66060830185613a0d565b6144d36080830184613a0d565b9998505050505050505050565b60006020820190506144f560008301846139fe565b92915050565b60006020820190506145106000830184613a0d565b92915050565b600060808201905061452b6000830187613acc565b61453860208301866138c4565b61454560408301856139fe565b61455260608301846138c4565b95945050505050565b600060208201905081810360008301526145758184613adb565b905092915050565b6000602082019050818103600083015261459681613b14565b9050919050565b600060208201905081810360008301526145b681613b7a565b9050919050565b600060208201905081810360008301526145d681613be0565b9050919050565b600060208201905081810360008301526145f681613c46565b9050919050565b6000602082019050818103600083015261461681613cac565b9050919050565b6000602082019050818103600083015261463681613d12565b9050919050565b6000602082019050818103600083015261465681613d52565b9050919050565b6000602082019050818103600083015261467681613db8565b9050919050565b6000602082019050818103600083015261469681613e1e565b9050919050565b600060208201905081810360008301526146b681613e84565b9050919050565b600060208201905081810360008301526146d681613ec4565b9050919050565b600060208201905081810360008301526146f681613f2a565b9050919050565b6000602082019050818103600083015261471681613f90565b9050919050565b6000602082019050818103600083015261473681613fd0565b9050919050565b6000602082019050818103600083015261475681614036565b9050919050565b600060208201905081810360008301526147768161409c565b9050919050565b6000602082019050818103600083015261479681614102565b9050919050565b600060208201905081810360008301526147b681614168565b9050919050565b600060208201905081810360008301526147d6816141ce565b9050919050565b60006020820190506147f2600083018461420e565b92915050565b600060408201905061480d600083018561420e565b61481a602083018461420e565b9392505050565b6000606082019050614836600083018661420e565b614843602083018561420e565b61485060408301846139fe565b949350505050565b600060a08201905061486d600083018861420e565b61487a602083018761420e565b61488760408301866139fe565b6148946060830185613a0d565b6148a1608083018461420e565b9695505050505050565b600080833560016020038436030381126148c457600080fd5b80840192508235915067ffffffffffffffff8211156148e257600080fd5b6020830192506001820236038313156148fa57600080fd5b509250929050565b6000819050919050565b6000819050919050565b600081519050919050565b600081519050919050565b6000602082019050919050565b6000602082019050919050565b600082825260208201905092915050565b600082825260208201905092915050565b600082825260208201905092915050565b600082825260208201905092915050565b600082825260208201905092915050565b600081905092915050565b600082825260208201905092915050565b60006149c66020840184613121565b905092915050565b600080833560016020038436030381126149e757600080fd5b83810192508235915060208301925067ffffffffffffffff821115614a0b57600080fd5b600182023603841315614a1d57600080fd5b509250929050565b6000614a3082614a5f565b9050919050565b6000614a4282614a5f565b9050919050565b60008115159050919050565b6000819050919050565b600073ffffffffffffffffffffffffffffffffffffffff82169050919050565b6000819050919050565b6000614a9482614aad565b9050919050565b6000614aa682614a7f565b9050919050565b6000614ab882614abf565b9050919050565b6000614aca82614a5f565b9050919050565b82818337600083830152505050565b60005b83811015614afe578082015181840152602081019050614ae3565b83811115614b0d576000848401525b50505050565b6000601f19601f8301169050919050565b614b2d81614a25565b8114614b3857600080fd5b50565b614b4481614a37565b8114614b4f57600080fd5b50565b614b5b81614a49565b8114614b6657600080fd5b50565b614b7281614a55565b8114614b7d57600080fd5b50565b614b8981614a7f565b8114614b9457600080fd5b5056fea2646970667358221220176460f39625fe6615062f0076756c721a9d72915f833cb6d130912caf94c82b64736f6c634300060c0033",
  "immutableReferences": {},
  "source": "/**\n *Submitted for verification at BscScan.com on 2021-01-09\n*/\n\n// SPDX-License-Identifier: MIT\n\npragma solidity 0.6.12;\n\npragma solidity >=0.6.9 <0.8.0;\npragma experimental ABIEncoderV2;\n\n// import \"https://github.com/OpenZeppelin/openzeppelin-contracts/blob/master/contracts/math/SafeMath.sol\";\npragma solidity >=0.6.0 <0.8.0;\n\n/**\n * @dev Wrappers over Solidity's arithmetic operations with added overflow\n * checks.\n *\n * Arithmetic operations in Solidity wrap on overflow. This can easily result\n * in bugs, because programmers usually assume that an overflow raises an\n * error, which is the standard behavior in high level programming languages.\n * `SafeMath` restores this intuition by reverting the transaction when an\n * operation overflows.\n *\n * Using this library instead of the unchecked operations eliminates an entire\n * class of bugs, so it's recommended to use it always.\n */\nlibrary SafeMath {\n    /**\n     * @dev Returns the addition of two unsigned integers, reverting on\n     * overflow.\n     *\n     * Counterpart to Solidity's `+` operator.\n     *\n     * Requirements:\n     *\n     * - Addition cannot overflow.\n     */\n    function add(uint256 a, uint256 b) internal pure returns (uint256) {\n        uint256 c = a + b;\n        require(c >= a, \"SafeMath: addition overflow\");\n\n        return c;\n    }\n\n    /**\n     * @dev Returns the subtraction of two unsigned integers, reverting on\n     * overflow (when the result is negative).\n     *\n     * Counterpart to Solidity's `-` operator.\n     *\n     * Requirements:\n     *\n     * - Subtraction cannot overflow.\n     */\n    function sub(uint256 a, uint256 b) internal pure returns (uint256) {\n        return sub(a, b, \"SafeMath: subtraction overflow\");\n    }\n\n    /**\n     * @dev Returns the subtraction of two unsigned integers, reverting with custom message on\n     * overflow (when the result is negative).\n     *\n     * Counterpart to Solidity's `-` operator.\n     *\n     * Requirements:\n     *\n     * - Subtraction cannot overflow.\n     */\n    function sub(\n        uint256 a,\n        uint256 b,\n        string memory errorMessage\n    ) internal pure returns (uint256) {\n        require(b <= a, errorMessage);\n        uint256 c = a - b;\n\n        return c;\n    }\n\n    /**\n     * @dev Returns the multiplication of two unsigned integers, reverting on\n     * overflow.\n     *\n     * Counterpart to Solidity's `*` operator.\n     *\n     * Requirements:\n     *\n     * - Multiplication cannot overflow.\n     */\n    function mul(uint256 a, uint256 b) internal pure returns (uint256) {\n        // Gas optimization: this is cheaper than requiring 'a' not being zero, but the\n        // benefit is lost if 'b' is also tested.\n        // See: https://github.com/OpenZeppelin/openzeppelin-contracts/pull/522\n        if (a == 0) {\n            return 0;\n        }\n\n        uint256 c = a * b;\n        require(c / a == b, \"SafeMath: multiplication overflow\");\n\n        return c;\n    }\n\n    /**\n     * @dev Returns the integer division of two unsigned integers. Reverts on\n     * division by zero. The result is rounded towards zero.\n     *\n     * Counterpart to Solidity's `/` operator. Note: this function uses a\n     * `revert` opcode (which leaves remaining gas untouched) while Solidity\n     * uses an invalid opcode to revert (consuming all remaining gas).\n     *\n     * Requirements:\n     *\n     * - The divisor cannot be zero.\n     */\n    function div(uint256 a, uint256 b) internal pure returns (uint256) {\n        return div(a, b, \"SafeMath: division by zero\");\n    }\n\n    /**\n     * @dev Returns the integer division of two unsigned integers. Reverts with custom message on\n     * division by zero. The result is rounded towards zero.\n     *\n     * Counterpart to Solidity's `/` operator. Note: this function uses a\n     * `revert` opcode (which leaves remaining gas untouched) while Solidity\n     * uses an invalid opcode to revert (consuming all remaining gas).\n     *\n     * Requirements:\n     *\n     * - The divisor cannot be zero.\n     */\n    function div(\n        uint256 a,\n        uint256 b,\n        string memory errorMessage\n    ) internal pure returns (uint256) {\n        require(b > 0, errorMessage);\n        uint256 c = a / b;\n        // assert(a == b * c + a % b); // There is no case in which this doesn't hold\n\n        return c;\n    }\n\n    /**\n     * @dev Returns the remainder of dividing two unsigned integers. (unsigned integer modulo),\n     * Reverts when dividing by zero.\n     *\n     * Counterpart to Solidity's `%` operator. This function uses a `revert`\n     * opcode (which leaves remaining gas untouched) while Solidity uses an\n     * invalid opcode to revert (consuming all remaining gas).\n     *\n     * Requirements:\n     *\n     * - The divisor cannot be zero.\n     */\n    function mod(uint256 a, uint256 b) internal pure returns (uint256) {\n        return mod(a, b, \"SafeMath: modulo by zero\");\n    }\n\n    /**\n     * @dev Returns the remainder of dividing two unsigned integers. (unsigned integer modulo),\n     * Reverts with custom message when dividing by zero.\n     *\n     * Counterpart to Solidity's `%` operator. This function uses a `revert`\n     * opcode (which leaves remaining gas untouched) while Solidity uses an\n     * invalid opcode to revert (consuming all remaining gas).\n     *\n     * Requirements:\n     *\n     * - The divisor cannot be zero.\n     */\n    function mod(\n        uint256 a,\n        uint256 b,\n        string memory errorMessage\n    ) internal pure returns (uint256) {\n        require(b != 0, errorMessage);\n        return a % b;\n    }\n}\n\ninterface IERC20 {\n    /**\n     * @dev Returns the amount of tokens in existence.\n     */\n    function totalSupply() external view returns (uint256);\n\n    /**\n     * @dev Returns the amount of tokens owned by `account`.\n     */\n    function balanceOf(address account) external view returns (uint256);\n\n    /**\n     * @dev Moves `amount` tokens from the caller's account to `recipient`.\n     *\n     * Returns a boolean value indicating whether the operation succeeded.\n     *\n     * Emits a {Transfer} event.\n     */\n    function transfer(address recipient, uint256 amount)\n        external\n        returns (bool);\n\n    /**\n     * @dev Returns the remaining number of tokens that `spender` will be\n     * allowed to spend on behalf of `owner` through {transferFrom}. This is\n     * zero by default.\n     *\n     * This value changes when {approve} or {transferFrom} are called.\n     */\n    function allowance(address owner, address spender)\n        external\n        view\n        returns (uint256);\n\n    /**\n     * @dev Sets `amount` as the allowance of `spender` over the caller's tokens.\n     *\n     * Returns a boolean value indicating whether the operation succeeded.\n     *\n     * IMPORTANT: Beware that changing an allowance with this method brings the risk\n     * that someone may use both the old and the new allowance by unfortunate\n     * transaction ordering. One possible solution to mitigate this race\n     * condition is to first reduce the spender's allowance to 0 and set the\n     * desired value afterwards:\n     * https://github.com/ethereum/EIPs/issues/20#issuecomment-263524729\n     *\n     * Emits an {Approval} event.\n     */\n    function approve(address spender, uint256 amount) external returns (bool);\n\n    /**\n     * @dev Moves `amount` tokens from `sender` to `recipient` using the\n     * allowance mechanism. `amount` is then deducted from the caller's\n     * allowance.\n     *\n     * Returns a boolean value indicating whether the operation succeeded.\n     *\n     * Emits a {Transfer} event.\n     */\n    function transferFrom(\n        address sender,\n        address recipient,\n        uint256 amount\n    ) external returns (bool);\n\n    /**\n     * @dev Emitted when `value` tokens are moved from one account (`from`) to\n     * another (`to`).\n     *\n     * Note that `value` may be zero.\n     */\n    event Transfer(address indexed from, address indexed to, uint256 value);\n\n    /**\n     * @dev Emitted when the allowance of a `spender` for an `owner` is set by\n     * a call to {approve}. `value` is the new allowance.\n     */\n    event Approval(\n        address indexed owner,\n        address indexed spender,\n        uint256 value\n    );\n}\n\nlibrary SafeERC20 {\n    using SafeMath for uint256;\n    using Address for address;\n\n    function safeTransfer(\n        IERC20 token,\n        address to,\n        uint256 value\n    ) internal {\n        _callOptionalReturn(\n            token,\n            abi.encodeWithSelector(token.transfer.selector, to, value)\n        );\n    }\n\n    function safeTransferFrom(\n        IERC20 token,\n        address from,\n        address to,\n        uint256 value\n    ) internal {\n        _callOptionalReturn(\n            token,\n            abi.encodeWithSelector(token.transferFrom.selector, from, to, value)\n        );\n    }\n\n    /**\n     * @dev Deprecated. This function has issues similar to the ones found in\n     * {IERC20-approve}, and its usage is discouraged.\n     *\n     * Whenever possible, use {safeIncreaseAllowance} and\n     * {safeDecreaseAllowance} instead.\n     */\n    function safeApprove(\n        IERC20 token,\n        address spender,\n        uint256 value\n    ) internal {\n        // safeApprove should only be called when setting an initial allowance,\n        // or when resetting it to zero. To increase and decrease it, use\n        // 'safeIncreaseAllowance' and 'safeDecreaseAllowance'\n        // solhint-disable-next-line max-line-length\n        require(\n            (value == 0) || (token.allowance(address(this), spender) == 0),\n            \"SafeERC20: approve from non-zero to non-zero allowance\"\n        );\n        _callOptionalReturn(\n            token,\n            abi.encodeWithSelector(token.approve.selector, spender, value)\n        );\n    }\n\n    function safeIncreaseAllowance(\n        IERC20 token,\n        address spender,\n        uint256 value\n    ) internal {\n        uint256 newAllowance =\n            token.allowance(address(this), spender).add(value);\n        _callOptionalReturn(\n            token,\n            abi.encodeWithSelector(\n                token.approve.selector,\n                spender,\n                newAllowance\n            )\n        );\n    }\n\n    function safeDecreaseAllowance(\n        IERC20 token,\n        address spender,\n        uint256 value\n    ) internal {\n        uint256 newAllowance =\n            token.allowance(address(this), spender).sub(\n                value,\n                \"SafeERC20: decreased allowance below zero\"\n            );\n        _callOptionalReturn(\n            token,\n            abi.encodeWithSelector(\n                token.approve.selector,\n                spender,\n                newAllowance\n            )\n        );\n    }\n\n    /**\n     * @dev Imitates a Solidity high-level call (i.e. a regular function call to a contract), relaxing the requirement\n     * on the return value: the return value is optional (but if data is returned, it must not be false).\n     * @param token The token targeted by the call.\n     * @param data The call data (encoded using abi.encode or one of its variants).\n     */\n    function _callOptionalReturn(IERC20 token, bytes memory data) private {\n        // We need to perform a low level call here, to bypass Solidity's return data size checking mechanism, since\n        // we're implementing it ourselves. We use {Address.functionCall} to perform this call, which verifies that\n        // the target address contains contract code and also asserts for success in the low-level call.\n\n        bytes memory returndata =\n            address(token).functionCall(\n                data,\n                \"SafeERC20: low-level call failed\"\n            );\n        if (returndata.length > 0) {\n            // Return data is optional\n            // solhint-disable-next-line max-line-length\n            require(\n                abi.decode(returndata, (bool)),\n                \"SafeERC20: ERC20 operation did not succeed\"\n            );\n        }\n    }\n}\n\n// import \"https://github.com/OpenZeppelin/openzeppelin-contracts/blob/master/contracts/utils/EnumerableSet.sol\";\nlibrary EnumerableSet {\n    // To implement this library for multiple types with as little code\n    // repetition as possible, we write it in terms of a generic Set type with\n    // bytes32 values.\n    // The Set implementation uses private functions, and user-facing\n    // implementations (such as AddressSet) are just wrappers around the\n    // underlying Set.\n    // This means that we can only create new EnumerableSets for types that fit\n    // in bytes32.\n\n    struct Set {\n        // Storage of set values\n        bytes32[] _values;\n        // Position of the value in the `values` array, plus 1 because index 0\n        // means a value is not in the set.\n        mapping(bytes32 => uint256) _indexes;\n    }\n\n    /**\n     * @dev Add a value to a set. O(1).\n     *\n     * Returns true if the value was added to the set, that is if it was not\n     * already present.\n     */\n    function _add(Set storage set, bytes32 value) private returns (bool) {\n        if (!_contains(set, value)) {\n            set._values.push(value);\n            // The value is stored at length-1, but we add 1 to all indexes\n            // and use 0 as a sentinel value\n            set._indexes[value] = set._values.length;\n            return true;\n        } else {\n            return false;\n        }\n    }\n\n    /**\n     * @dev Removes a value from a set. O(1).\n     *\n     * Returns true if the value was removed from the set, that is if it was\n     * present.\n     */\n    function _remove(Set storage set, bytes32 value) private returns (bool) {\n        // We read and store the value's index to prevent multiple reads from the same storage slot\n        uint256 valueIndex = set._indexes[value];\n\n        if (valueIndex != 0) {\n            // Equivalent to contains(set, value)\n            // To delete an element from the _values array in O(1), we swap the element to delete with the last one in\n            // the array, and then remove the last element (sometimes called as 'swap and pop').\n            // This modifies the order of the array, as noted in {at}.\n\n            uint256 toDeleteIndex = valueIndex - 1;\n            uint256 lastIndex = set._values.length - 1;\n\n            // When the value to delete is the last one, the swap operation is unnecessary. However, since this occurs\n            // so rarely, we still do the swap anyway to avoid the gas cost of adding an 'if' statement.\n\n            bytes32 lastvalue = set._values[lastIndex];\n\n            // Move the last value to the index where the value to delete is\n            set._values[toDeleteIndex] = lastvalue;\n            // Update the index for the moved value\n            set._indexes[lastvalue] = toDeleteIndex + 1; // All indexes are 1-based\n\n            // Delete the slot where the moved value was stored\n            set._values.pop();\n\n            // Delete the index for the deleted slot\n            delete set._indexes[value];\n\n            return true;\n        } else {\n            return false;\n        }\n    }\n\n    /**\n     * @dev Returns true if the value is in the set. O(1).\n     */\n    function _contains(Set storage set, bytes32 value)\n        private\n        view\n        returns (bool)\n    {\n        return set._indexes[value] != 0;\n    }\n\n    /**\n     * @dev Returns the number of values on the set. O(1).\n     */\n    function _length(Set storage set) private view returns (uint256) {\n        return set._values.length;\n    }\n\n    /**\n     * @dev Returns the value stored at position `index` in the set. O(1).\n     *\n     * Note that there are no guarantees on the ordering of values inside the\n     * array, and it may change when more values are added or removed.\n     *\n     * Requirements:\n     *\n     * - `index` must be strictly less than {length}.\n     */\n    function _at(Set storage set, uint256 index)\n        private\n        view\n        returns (bytes32)\n    {\n        require(\n            set._values.length > index,\n            \"EnumerableSet: index out of bounds\"\n        );\n        return set._values[index];\n    }\n\n    // Bytes32Set\n\n    struct Bytes32Set {\n        Set _inner;\n    }\n\n    /**\n     * @dev Add a value to a set. O(1).\n     *\n     * Returns true if the value was added to the set, that is if it was not\n     * already present.\n     */\n    function add(Bytes32Set storage set, bytes32 value)\n        internal\n        returns (bool)\n    {\n        return _add(set._inner, value);\n    }\n\n    /**\n     * @dev Removes a value from a set. O(1).\n     *\n     * Returns true if the value was removed from the set, that is if it was\n     * present.\n     */\n    function remove(Bytes32Set storage set, bytes32 value)\n        internal\n        returns (bool)\n    {\n        return _remove(set._inner, value);\n    }\n\n    /**\n     * @dev Returns true if the value is in the set. O(1).\n     */\n    function contains(Bytes32Set storage set, bytes32 value)\n        internal\n        view\n        returns (bool)\n    {\n        return _contains(set._inner, value);\n    }\n\n    /**\n     * @dev Returns the number of values in the set. O(1).\n     */\n    function length(Bytes32Set storage set) internal view returns (uint256) {\n        return _length(set._inner);\n    }\n\n    /**\n     * @dev Returns the value stored at position `index` in the set. O(1).\n     *\n     * Note that there are no guarantees on the ordering of values inside the\n     * array, and it may change when more values are added or removed.\n     *\n     * Requirements:\n     *\n     * - `index` must be strictly less than {length}.\n     */\n    function at(Bytes32Set storage set, uint256 index)\n        internal\n        view\n        returns (bytes32)\n    {\n        return _at(set._inner, index);\n    }\n\n    // AddressSet\n\n    struct AddressSet {\n        Set _inner;\n    }\n\n    /**\n     * @dev Add a value to a set. O(1).\n     *\n     * Returns true if the value was added to the set, that is if it was not\n     * already present.\n     */\n    function add(AddressSet storage set, address value)\n        internal\n        returns (bool)\n    {\n        return _add(set._inner, bytes32(uint256(value)));\n    }\n\n    /**\n     * @dev Removes a value from a set. O(1).\n     *\n     * Returns true if the value was removed from the set, that is if it was\n     * present.\n     */\n    function remove(AddressSet storage set, address value)\n        internal\n        returns (bool)\n    {\n        return _remove(set._inner, bytes32(uint256(value)));\n    }\n\n    /**\n     * @dev Returns true if the value is in the set. O(1).\n     */\n    function contains(AddressSet storage set, address value)\n        internal\n        view\n        returns (bool)\n    {\n        return _contains(set._inner, bytes32(uint256(value)));\n    }\n\n    /**\n     * @dev Returns the number of values in the set. O(1).\n     */\n    function length(AddressSet storage set) internal view returns (uint256) {\n        return _length(set._inner);\n    }\n\n    /**\n     * @dev Returns the value stored at position `index` in the set. O(1).\n     *\n     * Note that there are no guarantees on the ordering of values inside the\n     * array, and it may change when more values are added or removed.\n     *\n     * Requirements:\n     *\n     * - `index` must be strictly less than {length}.\n     */\n    function at(AddressSet storage set, uint256 index)\n        internal\n        view\n        returns (address)\n    {\n        return address(uint256(_at(set._inner, index)));\n    }\n\n    // UintSet\n\n    struct UintSet {\n        Set _inner;\n    }\n\n    /**\n     * @dev Add a value to a set. O(1).\n     *\n     * Returns true if the value was added to the set, that is if it was not\n     * already present.\n     */\n    function add(UintSet storage set, uint256 value) internal returns (bool) {\n        return _add(set._inner, bytes32(value));\n    }\n\n    /**\n     * @dev Removes a value from a set. O(1).\n     *\n     * Returns true if the value was removed from the set, that is if it was\n     * present.\n     */\n    function remove(UintSet storage set, uint256 value)\n        internal\n        returns (bool)\n    {\n        return _remove(set._inner, bytes32(value));\n    }\n\n    /**\n     * @dev Returns true if the value is in the set. O(1).\n     */\n    function contains(UintSet storage set, uint256 value)\n        internal\n        view\n        returns (bool)\n    {\n        return _contains(set._inner, bytes32(value));\n    }\n\n    /**\n     * @dev Returns the number of values on the set. O(1).\n     */\n    function length(UintSet storage set) internal view returns (uint256) {\n        return _length(set._inner);\n    }\n\n    /**\n     * @dev Returns the value stored at position `index` in the set. O(1).\n     *\n     * Note that there are no guarantees on the ordering of values inside the\n     * array, and it may change when more values are added or removed.\n     *\n     * Requirements:\n     *\n     * - `index` must be strictly less than {length}.\n     */\n    function at(UintSet storage set, uint256 index)\n        internal\n        view\n        returns (uint256)\n    {\n        return uint256(_at(set._inner, index));\n    }\n}\n\n// import \"https://github.com/OpenZeppelin/openzeppelin-contracts/blob/master/contracts/utils/Address.sol\";\n\npragma solidity >=0.6.2 <0.8.0;\n\n/**\n * @dev Collection of functions related to the address type\n */\nlibrary Address {\n    /**\n     * @dev Returns true if `account` is a contract.\n     *\n     * [IMPORTANT]\n     * ====\n     * It is unsafe to assume that an address for which this function returns\n     * false is an externally-owned account (EOA) and not a contract.\n     *\n     * Among others, `isContract` will return false for the following\n     * types of addresses:\n     *\n     *  - an externally-owned account\n     *  - a contract in construction\n     *  - an address where a contract will be created\n     *  - an address where a contract lived, but was destroyed\n     * ====\n     */\n    function isContract(address account) internal view returns (bool) {\n        // This method relies on extcodesize, which returns 0 for contracts in\n        // construction, since the code is only stored at the end of the\n        // constructor execution.\n\n        uint256 size;\n        // solhint-disable-next-line no-inline-assembly\n        assembly {\n            size := extcodesize(account)\n        }\n        return size > 0;\n    }\n\n    /**\n     * @dev Replacement for Solidity's `transfer`: sends `amount` wei to\n     * `recipient`, forwarding all available gas and reverting on errors.\n     *\n     * https://eips.ethereum.org/EIPS/eip-1884[EIP1884] increases the gas cost\n     * of certain opcodes, possibly making contracts go over the 2300 gas limit\n     * imposed by `transfer`, making them unable to receive funds via\n     * `transfer`. {sendValue} removes this limitation.\n     *\n     * https://diligence.consensys.net/posts/2019/09/stop-using-soliditys-transfer-now/[Learn more].\n     *\n     * IMPORTANT: because control is transferred to `recipient`, care must be\n     * taken to not create reentrancy vulnerabilities. Consider using\n     * {ReentrancyGuard} or the\n     * https://solidity.readthedocs.io/en/v0.5.11/security-considerations.html#use-the-checks-effects-interactions-pattern[checks-effects-interactions pattern].\n     */\n    function sendValue(address payable recipient, uint256 amount) internal {\n        require(\n            address(this).balance >= amount,\n            \"Address: insufficient balance\"\n        );\n\n        // solhint-disable-next-line avoid-low-level-calls, avoid-call-value\n        (bool success, ) = recipient.call{value: amount}(\"\");\n        require(\n            success,\n            \"Address: unable to send value, recipient may have reverted\"\n        );\n    }\n\n    /**\n     * @dev Performs a Solidity function call using a low level `call`. A\n     * plain`call` is an unsafe replacement for a function call: use this\n     * function instead.\n     *\n     * If `target` reverts with a revert reason, it is bubbled up by this\n     * function (like regular Solidity function calls).\n     *\n     * Returns the raw returned data. To convert to the expected return value,\n     * use https://solidity.readthedocs.io/en/latest/units-and-global-variables.html?highlight=abi.decode#abi-encoding-and-decoding-functions[`abi.decode`].\n     *\n     * Requirements:\n     *\n     * - `target` must be a contract.\n     * - calling `target` with `data` must not revert.\n     *\n     * _Available since v3.1._\n     */\n    function functionCall(address target, bytes memory data)\n        internal\n        returns (bytes memory)\n    {\n        return functionCall(target, data, \"Address: low-level call failed\");\n    }\n\n    /**\n     * @dev Same as {xref-Address-functionCall-address-bytes-}[`functionCall`], but with\n     * `errorMessage` as a fallback revert reason when `target` reverts.\n     *\n     * _Available since v3.1._\n     */\n    function functionCall(\n        address target,\n        bytes memory data,\n        string memory errorMessage\n    ) internal returns (bytes memory) {\n        return functionCallWithValue(target, data, 0, errorMessage);\n    }\n\n    /**\n     * @dev Same as {xref-Address-functionCall-address-bytes-}[`functionCall`],\n     * but also transferring `value` wei to `target`.\n     *\n     * Requirements:\n     *\n     * - the calling contract must have an ETH balance of at least `value`.\n     * - the called Solidity function must be `payable`.\n     *\n     * _Available since v3.1._\n     */\n    function functionCallWithValue(\n        address target,\n        bytes memory data,\n        uint256 value\n    ) internal returns (bytes memory) {\n        return\n            functionCallWithValue(\n                target,\n                data,\n                value,\n                \"Address: low-level call with value failed\"\n            );\n    }\n\n    /**\n     * @dev Same as {xref-Address-functionCallWithValue-address-bytes-uint256-}[`functionCallWithValue`], but\n     * with `errorMessage` as a fallback revert reason when `target` reverts.\n     *\n     * _Available since v3.1._\n     */\n    function functionCallWithValue(\n        address target,\n        bytes memory data,\n        uint256 value,\n        string memory errorMessage\n    ) internal returns (bytes memory) {\n        require(\n            address(this).balance >= value,\n            \"Address: insufficient balance for call\"\n        );\n        require(isContract(target), \"Address: call to non-contract\");\n\n        // solhint-disable-next-line avoid-low-level-calls\n        (bool success, bytes memory returndata) =\n            target.call{value: value}(data);\n        return _verifyCallResult(success, returndata, errorMessage);\n    }\n\n    /**\n     * @dev Same as {xref-Address-functionCall-address-bytes-}[`functionCall`],\n     * but performing a static call.\n     *\n     * _Available since v3.3._\n     */\n    function functionStaticCall(address target, bytes memory data)\n        internal\n        view\n        returns (bytes memory)\n    {\n        return\n            functionStaticCall(\n                target,\n                data,\n                \"Address: low-level static call failed\"\n            );\n    }\n\n    /**\n     * @dev Same as {xref-Address-functionCall-address-bytes-string-}[`functionCall`],\n     * but performing a static call.\n     *\n     * _Available since v3.3._\n     */\n    function functionStaticCall(\n        address target,\n        bytes memory data,\n        string memory errorMessage\n    ) internal view returns (bytes memory) {\n        require(isContract(target), \"Address: static call to non-contract\");\n\n        // solhint-disable-next-line avoid-low-level-calls\n        (bool success, bytes memory returndata) = target.staticcall(data);\n        return _verifyCallResult(success, returndata, errorMessage);\n    }\n\n    /**\n     * @dev Same as {xref-Address-functionCall-address-bytes-}[`functionCall`],\n     * but performing a delegate call.\n     *\n     * _Available since v3.3._\n     */\n    function functionDelegateCall(address target, bytes memory data)\n        internal\n        returns (bytes memory)\n    {\n        return\n            functionDelegateCall(\n                target,\n                data,\n                \"Address: low-level delegate call failed\"\n            );\n    }\n\n    /**\n     * @dev Same as {xref-Address-functionCall-address-bytes-string-}[`functionCall`],\n     * but performing a delegate call.\n     *\n     * _Available since v3.3._\n     */\n    function functionDelegateCall(\n        address target,\n        bytes memory data,\n        string memory errorMessage\n    ) internal returns (bytes memory) {\n        require(isContract(target), \"Address: delegate call to non-contract\");\n\n        // solhint-disable-next-line avoid-low-level-calls\n        (bool success, bytes memory returndata) = target.delegatecall(data);\n        return _verifyCallResult(success, returndata, errorMessage);\n    }\n\n    function _verifyCallResult(\n        bool success,\n        bytes memory returndata,\n        string memory errorMessage\n    ) private pure returns (bytes memory) {\n        if (success) {\n            return returndata;\n        } else {\n            // Look for revert reason and bubble it up if present\n            if (returndata.length > 0) {\n                // The easiest way to bubble the revert reason is using memory via assembly\n\n                // solhint-disable-next-line no-inline-assembly\n                assembly {\n                    let returndata_size := mload(returndata)\n                    revert(add(32, returndata), returndata_size)\n                }\n            } else {\n                revert(errorMessage);\n            }\n        }\n    }\n}\n\n// import \"https://github.com/OpenZeppelin/openzeppelin-contracts/blob/master/contracts/GSN/Context.sol\";\npragma solidity >=0.6.0 <0.8.0;\n\n/*\n * @dev Provides information about the current execution context, including the\n * sender of the transaction and its data. While these are generally available\n * via msg.sender and msg.data, they should not be accessed in such a direct\n * manner, since when dealing with GSN meta-transactions the account sending and\n * paying for execution may not be the actual sender (as far as an application\n * is concerned).\n *\n * This contract is only required for intermediate, library-like contracts.\n */\nabstract contract Context {\n    function _msgSender() internal view virtual returns (address payable) {\n        return msg.sender;\n    }\n\n    function _msgData() internal view virtual returns (bytes memory) {\n        this; // silence state mutability warning without generating bytecode - see https://github.com/ethereum/solidity/issues/2691\n        return msg.data;\n    }\n}\n\n// import \"https://github.com/OpenZeppelin/openzeppelin-contracts/blob/master/contracts/access/AccessControl.sol\";\npragma solidity >=0.6.0 <0.8.0;\n\n/**\n * @dev Contract module that allows children to implement role-based access\n * control mechanisms.\n *\n * Roles are referred to by their `bytes32` identifier. These should be exposed\n * in the external API and be unique. The best way to achieve this is by\n * using `public constant` hash digests:\n *\n * ```\n * bytes32 public constant MY_ROLE = keccak256(\"MY_ROLE\");\n * ```\n *\n * Roles can be used to represent a set of permissions. To restrict access to a\n * function call, use {hasRole}:\n *\n * ```\n * function foo() public {\n *     require(hasRole(MY_ROLE, msg.sender));\n *     ...\n * }\n * ```\n *\n * Roles can be granted and revoked dynamically via the {grantRole} and\n * {revokeRole} functions. Each role has an associated admin role, and only\n * accounts that have a role's admin role can call {grantRole} and {revokeRole}.\n *\n * By default, the admin role for all roles is `DEFAULT_ADMIN_ROLE`, which means\n * that only accounts with this role will be able to grant or revoke other\n * roles. More complex role relationships can be created by using\n * {_setRoleAdmin}.\n *\n * WARNING: The `DEFAULT_ADMIN_ROLE` is also its own admin: it has permission to\n * grant and revoke this role. Extra precautions should be taken to secure\n * accounts that have been granted it.\n */\nabstract contract AccessControl is Context {\n    using EnumerableSet for EnumerableSet.AddressSet;\n    using Address for address;\n\n    struct RoleData {\n        EnumerableSet.AddressSet members;\n        bytes32 adminRole;\n    }\n\n    mapping(bytes32 => RoleData) private _roles;\n\n    bytes32 public constant DEFAULT_ADMIN_ROLE = 0x00;\n\n    /**\n     * @dev Emitted when `newAdminRole` is set as ``role``'s admin role, replacing `previousAdminRole`\n     *\n     * `DEFAULT_ADMIN_ROLE` is the starting admin for all roles, despite\n     * {RoleAdminChanged} not being emitted signaling this.\n     *\n     * _Available since v3.1._\n     */\n    event RoleAdminChanged(\n        bytes32 indexed role,\n        bytes32 indexed previousAdminRole,\n        bytes32 indexed newAdminRole\n    );\n\n    /**\n     * @dev Emitted when `account` is granted `role`.\n     *\n     * `sender` is the account that originated the contract call, an admin role\n     * bearer except when using {_setupRole}.\n     */\n    event RoleGranted(\n        bytes32 indexed role,\n        address indexed account,\n        address indexed sender\n    );\n\n    /**\n     * @dev Emitted when `account` is revoked `role`.\n     *\n     * `sender` is the account that originated the contract call:\n     *   - if using `revokeRole`, it is the admin role bearer\n     *   - if using `renounceRole`, it is the role bearer (i.e. `account`)\n     */\n    event RoleRevoked(\n        bytes32 indexed role,\n        address indexed account,\n        address indexed sender\n    );\n\n    /**\n     * @dev Returns `true` if `account` has been granted `role`.\n     */\n    function hasRole(bytes32 role, address account) public view returns (bool) {\n        return _roles[role].members.contains(account);\n    }\n\n    /**\n     * @dev Returns the number of accounts that have `role`. Can be used\n     * together with {getRoleMember} to enumerate all bearers of a role.\n     */\n    function getRoleMemberCount(bytes32 role) public view returns (uint256) {\n        return _roles[role].members.length();\n    }\n\n    /**\n     * @dev Returns one of the accounts that have `role`. `index` must be a\n     * value between 0 and {getRoleMemberCount}, non-inclusive.\n     *\n     * Role bearers are not sorted in any particular way, and their ordering may\n     * change at any point.\n     *\n     * WARNING: When using {getRoleMember} and {getRoleMemberCount}, make sure\n     * you perform all queries on the same block. See the following\n     * https://forum.openzeppelin.com/t/iterating-over-elements-on-enumerableset-in-openzeppelin-contracts/2296[forum post]\n     * for more information.\n     */\n    function getRoleMember(bytes32 role, uint256 index)\n        public\n        view\n        returns (address)\n    {\n        return _roles[role].members.at(index);\n    }\n\n    /**\n     * @dev Returns the admin role that controls `role`. See {grantRole} and\n     * {revokeRole}.\n     *\n     * To change a role's admin, use {_setRoleAdmin}.\n     */\n    function getRoleAdmin(bytes32 role) public view returns (bytes32) {\n        return _roles[role].adminRole;\n    }\n\n    /**\n     * @dev Grants `role` to `account`.\n     *\n     * If `account` had not been already granted `role`, emits a {RoleGranted}\n     * event.\n     *\n     * Requirements:\n     *\n     * - the caller must have ``role``'s admin role.\n     */\n    function grantRole(bytes32 role, address account) public virtual {\n        require(\n            hasRole(_roles[role].adminRole, _msgSender()),\n            \"AccessControl: sender must be an admin to grant\"\n        );\n\n        _grantRole(role, account);\n    }\n\n    /**\n     * @dev Revokes `role` from `account`.\n     *\n     * If `account` had been granted `role`, emits a {RoleRevoked} event.\n     *\n     * Requirements:\n     *\n     * - the caller must have ``role``'s admin role.\n     */\n    function revokeRole(bytes32 role, address account) public virtual {\n        require(\n            hasRole(_roles[role].adminRole, _msgSender()),\n            \"AccessControl: sender must be an admin to revoke\"\n        );\n\n        _revokeRole(role, account);\n    }\n\n    /**\n     * @dev Revokes `role` from the calling account.\n     *\n     * Roles are often managed via {grantRole} and {revokeRole}: this function's\n     * purpose is to provide a mechanism for accounts to lose their privileges\n     * if they are compromised (such as when a trusted device is misplaced).\n     *\n     * If the calling account had been granted `role`, emits a {RoleRevoked}\n     * event.\n     *\n     * Requirements:\n     *\n     * - the caller must be `account`.\n     */\n    function renounceRole(bytes32 role, address account) public virtual {\n        require(\n            account == _msgSender(),\n            \"AccessControl: can only renounce roles for self\"\n        );\n\n        _revokeRole(role, account);\n    }\n\n    /**\n     * @dev Grants `role` to `account`.\n     *\n     * If `account` had not been already granted `role`, emits a {RoleGranted}\n     * event. Note that unlike {grantRole}, this function doesn't perform any\n     * checks on the calling account.\n     *\n     * [WARNING]\n     * ====\n     * This function should only be called from the constructor when setting\n     * up the initial roles for the system.\n     *\n     * Using this function in any other way is effectively circumventing the admin\n     * system imposed by {AccessControl}.\n     * ====\n     */\n    function _setupRole(bytes32 role, address account) internal virtual {\n        _grantRole(role, account);\n    }\n\n    /**\n     * @dev Sets `adminRole` as ``role``'s admin role.\n     *\n     * Emits a {RoleAdminChanged} event.\n     */\n    function _setRoleAdmin(bytes32 role, bytes32 adminRole) internal virtual {\n        emit RoleAdminChanged(role, _roles[role].adminRole, adminRole);\n        _roles[role].adminRole = adminRole;\n    }\n\n    function _grantRole(bytes32 role, address account) private {\n        if (_roles[role].members.add(account)) {\n            emit RoleGranted(role, account, _msgSender());\n        }\n    }\n\n    function _revokeRole(bytes32 role, address account) private {\n        if (_roles[role].members.remove(account)) {\n            emit RoleRevoked(role, account, _msgSender());\n        }\n    }\n}\n\n/**\n * @dev PumpyFarm functions that do not require less than the min timelock\n */\ninterface IPumpyFarm {\n    function add(\n        uint256 _allocPoint,\n        address _want,\n        bool _withUpdate,\n        address _strat\n    ) external;\n\n    function set(\n        uint256 _pid,\n        uint256 _allocPoint,\n        bool _withUpdate\n    ) external;\n}\n\n/**\n * @dev Strategy functions that do not require timelock or have a timelock less than the min timelock\n */\ninterface IStrategy {\n    // Main want token compounding function\n    function earn() external;\n\n    function farm() external;\n\n    function pause() external;\n\n    function unpause() external;\n\n    function rebalance(uint256 _borrowRate, uint256 _borrowDepth) external;\n\n    function deleverageOnce() external; \n\n    function wrapBNB() external; // Specifically for the Venus WBNB vault.\n\n    // In case new vaults require functions without a timelock as well, hoping to avoid having multiple timelock contracts\n    function noTimeLockFunc1() external;\n\n    function noTimeLockFunc2() external;\n\n    function noTimeLockFunc3() external;\n}\n\n// import \"https://github.com/OpenZeppelin/openzeppelin-contracts/blob/master/contracts/access/TimelockController.sol\";\n/**\n * @dev Contract module which acts as a timelocked controller. When set as the\n * owner of an `Ownable` smart contract, it enforces a timelock on all\n * `onlyOwner` maintenance operations. This gives time for users of the\n * controlled contract to exit before a potentially dangerous maintenance\n * operation is applied.\n *\n * By default, this contract is self administered, meaning administration tasks\n * have to go through the timelock process. The proposer (resp executor) role\n * is in charge of proposing (resp executing) operations. A common use case is\n * to position this {TimelockController} as the owner of a smart contract, with\n * a multisig or a DAO as the sole proposer.\n *\n * _Available since v3.3._\n */\ncontract TimelockController is AccessControl {\n    using SafeERC20 for IERC20;\n\n    bytes32 public constant TIMELOCK_ADMIN_ROLE =\n        keccak256(\"TIMELOCK_ADMIN_ROLE\");\n    bytes32 public constant PROPOSER_ROLE = keccak256(\"PROPOSER_ROLE\");\n    bytes32 public constant EXECUTOR_ROLE = keccak256(\"EXECUTOR_ROLE\");\n    uint256 internal constant _DONE_TIMESTAMP = uint256(1);\n\n    mapping(bytes32 => uint256) private _timestamps;\n    uint256 public minDelay = 60; // seconds - to be increased in production\n    uint256 public minDelayReduced = 30; // seconds - to be increased in production\n\n    address payable public devWalletAddress =\n        0xeAF2B6F5d9482C80729a00bDea2abac8F099f0a3;\n    /**\n     * @dev Emitted when a call is scheduled as part of operation `id`.\n     */\n    event CallScheduled(\n        bytes32 indexed id,\n        uint256 indexed index,\n        address target,\n        uint256 value,\n        bytes data,\n        bytes32 predecessor,\n        uint256 delay\n    );\n\n    /**\n     * @dev Emitted when a call is scheduled as part of operation `id`.\n     */\n    event SetScheduled(\n        bytes32 indexed id,\n        uint256 indexed index,\n        uint256 _pid,\n        uint256 _allocPoint,\n        bool _withUpdate,\n        bytes32 predecessor,\n        uint256 delay\n    );\n\n    /**\n     * @dev Emitted when a call is performed as part of operation `id`.\n     */\n    event CallExecuted(\n        bytes32 indexed id,\n        uint256 indexed index,\n        address target,\n        uint256 value,\n        bytes data\n    );\n\n    /**\n     * @dev Emitted when operation `id` is cancelled.\n     */\n    event Cancelled(bytes32 indexed id);\n\n    /**\n     * @dev Emitted when the minimum delay for future operations is modified.\n     */\n    event MinDelayChange(uint256 oldDuration, uint256 newDuration);\n\n    event MinDelayReducedChange(uint256 oldDuration, uint256 newDuration);\n\n    event SetScheduled(\n        bytes32 indexed id,\n        uint256 indexed index,\n        address target,\n        uint256 value,\n        bytes data,\n        bytes32 predecessor,\n        uint256 delay\n    );\n\n    /**\n     * @dev Initializes the contract with a given `minDelay`.\n     */\n    constructor()\n        public\n    // address[] memory proposers, address[] memory executors\n    {\n        _setRoleAdmin(TIMELOCK_ADMIN_ROLE, TIMELOCK_ADMIN_ROLE);\n        _setRoleAdmin(PROPOSER_ROLE, TIMELOCK_ADMIN_ROLE);\n        _setRoleAdmin(EXECUTOR_ROLE, TIMELOCK_ADMIN_ROLE);\n\n        // deployer + self administration\n        _setupRole(TIMELOCK_ADMIN_ROLE, _msgSender());\n        _setupRole(TIMELOCK_ADMIN_ROLE, address(this));\n\n        // register proposers\n        // for (uint256 i = 0; i < proposers.length; ++i) {\n        //     _setupRole(PROPOSER_ROLE, proposers[i]);\n        // }\n        _setupRole(PROPOSER_ROLE, devWalletAddress);\n\n        // // register executors\n        // for (uint256 i = 0; i < executors.length; ++i) {\n        //     _setupRole(EXECUTOR_ROLE, executors[i]);\n        // }\n        _setupRole(EXECUTOR_ROLE, devWalletAddress);\n\n        emit MinDelayChange(0, minDelay);\n    }\n\n    /**\n     * @dev Modifier to make a function callable only by a certain role. In\n     * addition to checking the sender's role, `address(0)` 's role is also\n     * considered. Granting a role to `address(0)` is equivalent to enabling\n     * this role for everyone.\n     */\n    modifier onlyRole(bytes32 role) {\n        require(\n            hasRole(role, _msgSender()) || hasRole(role, address(0)),\n            \"TimelockController: sender requires permission\"\n        );\n        _;\n    }\n\n    /**\n     * @dev Contract might receive/hold ETH as part of the maintenance process.\n     */\n    receive() external payable {}\n\n    /**\n     * @dev Returns whether an operation is pending or not.\n     */\n    function isOperationPending(bytes32 id) public view returns (bool pending) {\n        return _timestamps[id] > _DONE_TIMESTAMP;\n    }\n\n    /**\n     * @dev Returns whether an operation is ready or not.\n     */\n    function isOperationReady(bytes32 id) public view returns (bool ready) {\n        // solhint-disable-next-line not-rely-on-time\n        return\n            _timestamps[id] > _DONE_TIMESTAMP &&\n            _timestamps[id] <= block.timestamp;\n    }\n\n    /**\n     * @dev Returns whether an operation is done or not.\n     */\n    function isOperationDone(bytes32 id) public view returns (bool done) {\n        return _timestamps[id] == _DONE_TIMESTAMP;\n    }\n\n    /**\n     * @dev Returns the timestamp at with an operation becomes ready (0 for\n     * unset operations, 1 for done operations).\n     */\n    function getTimestamp(bytes32 id) public view returns (uint256 timestamp) {\n        return _timestamps[id];\n    }\n\n    /**\n     * @dev Returns the minimum delay for an operation to become valid.\n     *\n     * This value can be changed by executing an operation that calls `updateDelay`.\n     */\n    function getMinDelay() public view returns (uint256 duration) {\n        return minDelay;\n    }\n\n    /**\n     * @dev Returns the identifier of an operation containing a single\n     * transaction.\n     */\n    function hashOperation(\n        address target,\n        uint256 value,\n        bytes calldata data,\n        bytes32 predecessor,\n        bytes32 salt\n    ) public pure returns (bytes32 hash) {\n        return keccak256(abi.encode(target, value, data, predecessor, salt));\n    }\n\n    /**\n     * @dev Returns the identifier of an operation containing a batch of\n     * transactions.\n     */\n    function hashOperationBatch(\n        address[] calldata targets,\n        uint256[] calldata values,\n        bytes[] calldata datas,\n        bytes32 predecessor,\n        bytes32 salt\n    ) public pure returns (bytes32 hash) {\n        return keccak256(abi.encode(targets, values, datas, predecessor, salt));\n    }\n\n    /**\n     * @dev Schedule an operation containing a single transaction.\n     *\n     * Emits a {CallScheduled} event.\n     *\n     * Requirements:\n     *\n     * - the caller must have the 'proposer' role.\n     */\n    function schedule(\n        address target,\n        uint256 value,\n        bytes calldata data,\n        bytes32 predecessor,\n        bytes32 salt,\n        uint256 delay\n    ) public virtual onlyRole(PROPOSER_ROLE) {\n        bytes32 id = hashOperation(target, value, data, predecessor, salt);\n        _schedule(id, delay);\n        emit CallScheduled(id, 0, target, value, data, predecessor, delay);\n    }\n\n    /**\n     * @dev Schedule an operation containing a batch of transactions.\n     *\n     * Emits one {CallScheduled} event per transaction in the batch.\n     *\n     * Requirements:\n     *\n     * - the caller must have the 'proposer' role.\n     */\n    function scheduleBatch(\n        address[] calldata targets,\n        uint256[] calldata values,\n        bytes[] calldata datas,\n        bytes32 predecessor,\n        bytes32 salt,\n        uint256 delay\n    ) public virtual onlyRole(PROPOSER_ROLE) {\n        require(\n            targets.length == values.length,\n            \"TimelockController: length mismatch\"\n        );\n        require(\n            targets.length == datas.length,\n            \"TimelockController: length mismatch\"\n        );\n\n        bytes32 id =\n            hashOperationBatch(targets, values, datas, predecessor, salt);\n        _schedule(id, delay);\n        for (uint256 i = 0; i < targets.length; ++i) {\n            emit CallScheduled(\n                id,\n                i,\n                targets[i],\n                values[i],\n                datas[i],\n                predecessor,\n                delay\n            );\n        }\n    }\n\n    /**\n     * @dev Schedule an operation that is to becomes valid after a given delay.\n     */\n    function _schedule(bytes32 id, uint256 delay) private {\n        require(\n            _timestamps[id] == 0,\n            \"TimelockController: operation already scheduled\"\n        );\n        require(delay >= minDelay, \"TimelockController: insufficient delay\");\n        // solhint-disable-next-line not-rely-on-time\n        _timestamps[id] = SafeMath.add(block.timestamp, delay);\n    }\n\n    /**\n     * @dev Cancel an operation.\n     *\n     * Requirements:\n     *\n     * - the caller must have the 'proposer' role.\n     */\n    function cancel(bytes32 id) public virtual onlyRole(PROPOSER_ROLE) {\n        require(\n            isOperationPending(id),\n            \"TimelockController: operation cannot be cancelled\"\n        );\n        delete _timestamps[id];\n\n        emit Cancelled(id);\n    }\n\n    /**\n     * @dev Execute an (ready) operation containing a single transaction.\n     *\n     * Emits a {CallExecuted} event.\n     *\n     * Requirements:\n     *\n     * - the caller must have the 'executor' role.\n     */\n    function execute(\n        address target,\n        uint256 value,\n        bytes calldata data,\n        bytes32 predecessor,\n        bytes32 salt\n    ) public payable virtual onlyRole(EXECUTOR_ROLE) {\n        bytes32 id = hashOperation(target, value, data, predecessor, salt);\n        _beforeCall(predecessor);\n        _call(id, 0, target, value, data);\n        _afterCall(id);\n    }\n\n    /**\n     * @dev Execute an (ready) operation containing a batch of transactions.\n     *\n     * Emits one {CallExecuted} event per transaction in the batch.\n     *\n     * Requirements:\n     *\n     * - the caller must have the 'executor' role.\n     */\n    function executeBatch(\n        address[] calldata targets,\n        uint256[] calldata values,\n        bytes[] calldata datas,\n        bytes32 predecessor,\n        bytes32 salt\n    ) public payable virtual onlyRole(EXECUTOR_ROLE) {\n        require(\n            targets.length == values.length,\n            \"TimelockController: length mismatch\"\n        );\n        require(\n            targets.length == datas.length,\n            \"TimelockController: length mismatch\"\n        );\n\n        bytes32 id =\n            hashOperationBatch(targets, values, datas, predecessor, salt);\n        _beforeCall(predecessor);\n        for (uint256 i = 0; i < targets.length; ++i) {\n            _call(id, i, targets[i], values[i], datas[i]);\n        }\n        _afterCall(id);\n    }\n\n    /**\n     * @dev Checks before execution of an operation's calls.\n     */\n    function _beforeCall(bytes32 predecessor) private view {\n        require(\n            predecessor == bytes32(0) || isOperationDone(predecessor),\n            \"TimelockController: missing dependency\"\n        );\n    }\n\n    /**\n     * @dev Checks after execution of an operation's calls.\n     */\n    function _afterCall(bytes32 id) private {\n        require(\n            isOperationReady(id),\n            \"TimelockController: operation is not ready\"\n        );\n        _timestamps[id] = _DONE_TIMESTAMP;\n    }\n\n    /**\n     * @dev Execute an operation's call.\n     *\n     * Emits a {CallExecuted} event.\n     */\n    function _call(\n        bytes32 id,\n        uint256 index,\n        address target,\n        uint256 value,\n        bytes calldata data\n    ) private {\n        // solhint-disable-next-line avoid-low-level-calls\n        (bool success, ) = target.call{value: value}(data);\n        require(success, \"TimelockController: underlying transaction reverted\");\n\n        emit CallExecuted(id, index, target, value, data);\n    }\n\n    /**\n     * @dev Changes the minimum timelock duration for future operations.\n     *\n     * Emits a {MinDelayChange} event.\n     *\n     * Requirements:\n     *\n     * - the caller must be the timelock itself. This can only be achieved by scheduling and later executing\n     * an operation where the timelock is the target and the data is the ABI-encoded call to this function.\n     */\n    function updateMinDelay(uint256 newDelay) external virtual {\n        require(\n            msg.sender == address(this),\n            \"TimelockController: caller must be timelock\"\n        );\n        emit MinDelayChange(minDelay, newDelay);\n        minDelay = newDelay;\n    }\n\n    function updateMinDelayReduced(uint256 newDelay) external virtual {\n        require(\n            msg.sender == address(this),\n            \"TimelockController: caller must be timelock\"\n        );\n        emit MinDelayReducedChange(minDelayReduced, newDelay);\n        minDelayReduced = newDelay;\n    }\n\n    function setDevWalletAddress(address payable _devWalletAddress) public {\n        require(\n            msg.sender == address(this),\n            \"TimelockController: caller must be timelock\"\n        );\n        require(tx.origin == devWalletAddress, \"tx.origin != devWalletAddress\");\n        devWalletAddress = _devWalletAddress;\n    }\n\n    /**\n     * @dev Reduced timelock functions\n     */\n    function scheduleSet(\n        address _pumpyfarmAddress,\n        uint256 _pid,\n        uint256 _allocPoint,\n        bool _withUpdate,\n        bytes32 predecessor,\n        bytes32 salt\n    ) public onlyRole(EXECUTOR_ROLE) {\n        bytes32 id =\n            keccak256(\n                abi.encode(\n                    _pumpyfarmAddress,\n                    _pid,\n                    _allocPoint,\n                    _withUpdate,\n                    predecessor,\n                    salt\n                )\n            );\n\n        require(\n            _timestamps[id] == 0,\n            \"TimelockController: operation already scheduled\"\n        );\n\n        _timestamps[id] = SafeMath.add(block.timestamp, minDelayReduced);\n        emit SetScheduled(\n            id,\n            0,\n            _pid,\n            _allocPoint,\n            _withUpdate,\n            predecessor,\n            minDelayReduced\n        );\n    }\n\n    function executeSet(\n        address _pumpyfarmAddress,\n        uint256 _pid,\n        uint256 _allocPoint,\n        bool _withUpdate,\n        bytes32 predecessor,\n        bytes32 salt\n    ) public payable virtual onlyRole(EXECUTOR_ROLE) {\n        bytes32 id =\n            keccak256(\n                abi.encode(\n                    _pumpyfarmAddress,\n                    _pid,\n                    _allocPoint,\n                    _withUpdate,\n                    predecessor,\n                    salt\n                )\n            );\n\n        _beforeCall(predecessor);\n        IPumpyFarm(_pumpyfarmAddress).set(_pid, _allocPoint, _withUpdate);\n        _afterCall(id);\n    }\n\n    /**\n     * @dev No timelock functions\n     */\n    function withdrawBNB() public payable {\n        require(msg.sender == devWalletAddress, \"!devWalletAddress\");\n        devWalletAddress.transfer(address(this).balance);\n    }\n\n    function withdrawBEP20(address _tokenAddress) public payable {\n        require(msg.sender == devWalletAddress, \"!devWalletAddress\");\n        uint256 tokenBal = IERC20(_tokenAddress).balanceOf(address(this));\n        IERC20(_tokenAddress).safeIncreaseAllowance(devWalletAddress, tokenBal);\n        IERC20(_tokenAddress).transfer(devWalletAddress, tokenBal);\n    }\n\n    function add(\n        address _pumpyfarmAddress,\n        address _want,\n        bool _withUpdate,\n        address _strat\n    ) public onlyRole(EXECUTOR_ROLE) {\n        IPumpyFarm(_pumpyfarmAddress).add(0, _want, _withUpdate, _strat); // allocPoint = 0. Schedule set (timelocked) to increase allocPoint.\n    }\n\n    function earn(address _stratAddress) public onlyRole(EXECUTOR_ROLE) {\n        IStrategy(_stratAddress).earn();\n    }\n\n    function farm(address _stratAddress) public onlyRole(EXECUTOR_ROLE) {\n        IStrategy(_stratAddress).farm();\n    }\n\n    function pause(address _stratAddress) public onlyRole(EXECUTOR_ROLE) {\n        IStrategy(_stratAddress).pause();\n    }\n\n    function unpause(address _stratAddress) public onlyRole(EXECUTOR_ROLE) {\n        IStrategy(_stratAddress).unpause();\n    }\n\n    function rebalance(\n        address _stratAddress,\n        uint256 _borrowRate,\n        uint256 _borrowDepth\n    ) public onlyRole(EXECUTOR_ROLE) {\n        IStrategy(_stratAddress).rebalance(_borrowRate, _borrowDepth);\n    }\n\n    \n    function deleverageOnce(address _stratAddress) public onlyRole(EXECUTOR_ROLE) {\n        IStrategy(_stratAddress).deleverageOnce();\n    }\n\n    function wrapBNB(address _stratAddress) public onlyRole(EXECUTOR_ROLE) {\n        IStrategy(_stratAddress).wrapBNB();\n    }\n\n    // // In case new vaults require functions without a timelock as well, hoping to avoid having multiple timelock contracts\n    function noTimeLockFunc1(address _stratAddress)\n        public\n        onlyRole(EXECUTOR_ROLE)\n    {\n        IStrategy(_stratAddress).noTimeLockFunc1();\n    }\n\n    function noTimeLockFunc2(address _stratAddress)\n        public\n        onlyRole(EXECUTOR_ROLE)\n    {\n        IStrategy(_stratAddress).noTimeLockFunc2();\n    }\n\n    function noTimeLockFunc3(address _stratAddress)\n        public\n        onlyRole(EXECUTOR_ROLE)\n    {\n        IStrategy(_stratAddress).noTimeLockFunc3();\n    }\n}\n",
  "sourcePath": "/Users/user/Projects/pumpy.smarts/contracts/TimelockController.sol",
  "compiler": {
    "name": "solc",
    "version": "0.6.12+commit.27d51765.Emscripten.clang"
  },
  "schemaVersion": "3.3.4",
  "updatedAt": "2021-03-24T11:04:46.151Z",
  "devdoc": {
    "details": "Contract module which acts as a timelocked controller. When set as the owner of an `Ownable` smart contract, it enforces a timelock on all `onlyOwner` maintenance operations. This gives time for users of the controlled contract to exit before a potentially dangerous maintenance operation is applied. By default, this contract is self administered, meaning administration tasks have to go through the timelock process. The proposer (resp executor) role is in charge of proposing (resp executing) operations. A common use case is to position this {TimelockController} as the owner of a smart contract, with a multisig or a DAO as the sole proposer. _Available since v3.3._",
    "events": {
      "CallExecuted(bytes32,uint256,address,uint256,bytes)": {
        "details": "Emitted when a call is performed as part of operation `id`."
      },
      "CallScheduled(bytes32,uint256,address,uint256,bytes,bytes32,uint256)": {
        "details": "Emitted when a call is scheduled as part of operation `id`."
      },
      "Cancelled(bytes32)": {
        "details": "Emitted when operation `id` is cancelled."
      },
      "MinDelayChange(uint256,uint256)": {
        "details": "Emitted when the minimum delay for future operations is modified."
      },
      "SetScheduled(bytes32,uint256,uint256,uint256,bool,bytes32,uint256)": {
        "details": "Emitted when a call is scheduled as part of operation `id`."
      }
    },
    "kind": "dev",
    "methods": {
      "cancel(bytes32)": {
        "details": "Cancel an operation. Requirements: - the caller must have the 'proposer' role."
      },
      "constructor": {
        "details": "Initializes the contract with a given `minDelay`."
      },
      "execute(address,uint256,bytes,bytes32,bytes32)": {
        "details": "Execute an (ready) operation containing a single transaction. Emits a {CallExecuted} event. Requirements: - the caller must have the 'executor' role."
      },
      "executeBatch(address[],uint256[],bytes[],bytes32,bytes32)": {
        "details": "Execute an (ready) operation containing a batch of transactions. Emits one {CallExecuted} event per transaction in the batch. Requirements: - the caller must have the 'executor' role."
      },
      "getMinDelay()": {
        "details": "Returns the minimum delay for an operation to become valid. This value can be changed by executing an operation that calls `updateDelay`."
      },
      "getRoleAdmin(bytes32)": {
        "details": "Returns the admin role that controls `role`. See {grantRole} and {revokeRole}. To change a role's admin, use {_setRoleAdmin}."
      },
      "getRoleMember(bytes32,uint256)": {
        "details": "Returns one of the accounts that have `role`. `index` must be a value between 0 and {getRoleMemberCount}, non-inclusive. Role bearers are not sorted in any particular way, and their ordering may change at any point. WARNING: When using {getRoleMember} and {getRoleMemberCount}, make sure you perform all queries on the same block. See the following https://forum.openzeppelin.com/t/iterating-over-elements-on-enumerableset-in-openzeppelin-contracts/2296[forum post] for more information."
      },
      "getRoleMemberCount(bytes32)": {
        "details": "Returns the number of accounts that have `role`. Can be used together with {getRoleMember} to enumerate all bearers of a role."
      },
      "getTimestamp(bytes32)": {
        "details": "Returns the timestamp at with an operation becomes ready (0 for unset operations, 1 for done operations)."
      },
      "grantRole(bytes32,address)": {
        "details": "Grants `role` to `account`. If `account` had not been already granted `role`, emits a {RoleGranted} event. Requirements: - the caller must have ``role``'s admin role."
      },
      "hasRole(bytes32,address)": {
        "details": "Returns `true` if `account` has been granted `role`."
      },
      "hashOperation(address,uint256,bytes,bytes32,bytes32)": {
        "details": "Returns the identifier of an operation containing a single transaction."
      },
      "hashOperationBatch(address[],uint256[],bytes[],bytes32,bytes32)": {
        "details": "Returns the identifier of an operation containing a batch of transactions."
      },
      "isOperationDone(bytes32)": {
        "details": "Returns whether an operation is done or not."
      },
      "isOperationPending(bytes32)": {
        "details": "Returns whether an operation is pending or not."
      },
      "isOperationReady(bytes32)": {
        "details": "Returns whether an operation is ready or not."
      },
      "renounceRole(bytes32,address)": {
        "details": "Revokes `role` from the calling account. Roles are often managed via {grantRole} and {revokeRole}: this function's purpose is to provide a mechanism for accounts to lose their privileges if they are compromised (such as when a trusted device is misplaced). If the calling account had been granted `role`, emits a {RoleRevoked} event. Requirements: - the caller must be `account`."
      },
      "revokeRole(bytes32,address)": {
        "details": "Revokes `role` from `account`. If `account` had been granted `role`, emits a {RoleRevoked} event. Requirements: - the caller must have ``role``'s admin role."
      },
      "schedule(address,uint256,bytes,bytes32,bytes32,uint256)": {
        "details": "Schedule an operation containing a single transaction. Emits a {CallScheduled} event. Requirements: - the caller must have the 'proposer' role."
      },
      "scheduleBatch(address[],uint256[],bytes[],bytes32,bytes32,uint256)": {
        "details": "Schedule an operation containing a batch of transactions. Emits one {CallScheduled} event per transaction in the batch. Requirements: - the caller must have the 'proposer' role."
      },
      "scheduleSet(address,uint256,uint256,bool,bytes32,bytes32)": {
        "details": "Reduced timelock functions"
      },
      "updateMinDelay(uint256)": {
        "details": "Changes the minimum timelock duration for future operations. Emits a {MinDelayChange} event. Requirements: - the caller must be the timelock itself. This can only be achieved by scheduling and later executing an operation where the timelock is the target and the data is the ABI-encoded call to this function."
      },
      "withdrawBNB()": {
        "details": "No timelock functions"
      }
    },
    "version": 1
  },
  "userdoc": {
    "kind": "user",
    "methods": {},
    "version": 1
  }
}